{
  "contractName": "LinkWallet",
  "abi": [
    {
      "anonymous": false,
      "inputs": [
        {
          "indexed": true,
          "internalType": "address",
          "name": "previousOwner",
          "type": "address"
        },
        {
          "indexed": true,
          "internalType": "address",
          "name": "newOwner",
          "type": "address"
        }
      ],
      "name": "OwnershipTransferred",
      "type": "event"
    },
    {
      "inputs": [],
      "name": "owner",
      "outputs": [
        {
          "internalType": "address",
          "name": "",
          "type": "address"
        }
      ],
      "stateMutability": "view",
      "type": "function",
      "constant": true
    },
    {
      "inputs": [],
      "name": "renounceOwnership",
      "outputs": [],
      "stateMutability": "nonpayable",
      "type": "function"
    },
    {
      "inputs": [
        {
          "internalType": "address",
          "name": "newOwner",
          "type": "address"
        }
      ],
      "name": "transferOwnership",
      "outputs": [],
      "stateMutability": "nonpayable",
      "type": "function"
    },
    {
      "inputs": [
        {
          "internalType": "address",
          "name": "_walletAddress",
          "type": "address"
        },
        {
          "internalType": "string",
          "name": "_userId",
          "type": "string"
        }
      ],
      "name": "linkWallet",
      "outputs": [],
      "stateMutability": "nonpayable",
      "type": "function"
    },
    {
      "inputs": [
        {
          "internalType": "address",
          "name": "_walletAddress",
          "type": "address"
        }
      ],
      "name": "getUserIdByWalletAddress",
      "outputs": [
        {
          "internalType": "string",
          "name": "",
          "type": "string"
        }
      ],
      "stateMutability": "view",
      "type": "function",
      "constant": true
    },
    {
      "inputs": [
        {
          "internalType": "string",
          "name": "_userId",
          "type": "string"
        }
      ],
      "name": "getWalletAddressByUserId",
      "outputs": [
        {
          "internalType": "address",
          "name": "",
          "type": "address"
        }
      ],
      "stateMutability": "view",
      "type": "function",
      "constant": true
    }
  ],
  "bytecode": "0x608060405234801561001057600080fd5b5061002d61002261003260201b60201c565b61003a60201b60201c565b6100fe565b600033905090565b60008060009054906101000a900473ffffffffffffffffffffffffffffffffffffffff169050816000806101000a81548173ffffffffffffffffffffffffffffffffffffffff021916908373ffffffffffffffffffffffffffffffffffffffff1602179055508173ffffffffffffffffffffffffffffffffffffffff168173ffffffffffffffffffffffffffffffffffffffff167f8be0079c531659141344cd1fd0a4f28419497f9722a3daafe3b4186f6b6457e060405160405180910390a35050565b610fb78061010d6000396000f3fe608060405234801561001057600080fd5b50600436106100625760003560e01c806303fb0114146100675780635cfff11714610097578063715018a6146100c75780638da5cb5b146100d1578063d729e284146100ef578063f2fde38b1461010b575b600080fd5b610081600480360381019061007c91906108e8565b610127565b60405161008e91906109ae565b60405180910390f35b6100b160048036038101906100ac9190610b05565b6101f8565b6040516100be9190610b5d565b60405180910390f35b6100cf610240565b005b6100d96102c8565b6040516100e69190610b5d565b60405180910390f35b61010960048036038101906101049190610b78565b6102f1565b005b610125600480360381019061012091906108e8565b610610565b005b6060600160008373ffffffffffffffffffffffffffffffffffffffff1673ffffffffffffffffffffffffffffffffffffffff168152602001908152602001600020805461017390610c03565b80601f016020809104026020016040519081016040528092919081815260200182805461019f90610c03565b80156101ec5780601f106101c1576101008083540402835291602001916101ec565b820191906000526020600020905b8154815290600101906020018083116101cf57829003601f168201915b50505050509050919050565b600060028260405161020a9190610c70565b908152602001604051809103902060009054906101000a900473ffffffffffffffffffffffffffffffffffffffff169050919050565b610248610707565b73ffffffffffffffffffffffffffffffffffffffff166102666102c8565b73ffffffffffffffffffffffffffffffffffffffff16146102bc576040517f08c379a00000000000000000000000000000000000000000000000000000000081526004016102b390610cd3565b60405180910390fd5b6102c6600061070f565b565b60008060009054906101000a900473ffffffffffffffffffffffffffffffffffffffff16905090565b6102f9610707565b73ffffffffffffffffffffffffffffffffffffffff166103176102c8565b73ffffffffffffffffffffffffffffffffffffffff161461036d576040517f08c379a000000000000000000000000000000000000000000000000000000000815260040161036490610cd3565b60405180910390fd5b600073ffffffffffffffffffffffffffffffffffffffff168273ffffffffffffffffffffffffffffffffffffffff16036103dc576040517f08c379a00000000000000000000000000000000000000000000000000000000081526004016103d390610d3f565b60405180910390fd5b6000815111610420576040517f08c379a000000000000000000000000000000000000000000000000000000000815260040161041790610dab565b60405180910390fd5b6000600160008473ffffffffffffffffffffffffffffffffffffffff1673ffffffffffffffffffffffffffffffffffffffff168152602001908152602001600020805461046c90610c03565b9050146104ae576040517f08c379a00000000000000000000000000000000000000000000000000000000081526004016104a590610e3d565b60405180910390fd5b600073ffffffffffffffffffffffffffffffffffffffff166002826040516104d69190610c70565b908152602001604051809103902060009054906101000a900473ffffffffffffffffffffffffffffffffffffffff1673ffffffffffffffffffffffffffffffffffffffff161461055b576040517f08c379a000000000000000000000000000000000000000000000000000000000815260040161055290610ecf565b60405180910390fd5b80600160008473ffffffffffffffffffffffffffffffffffffffff1673ffffffffffffffffffffffffffffffffffffffff16815260200190815260200160002090805190602001906105ae9291906107d3565b50816002826040516105c09190610c70565b908152602001604051809103902060006101000a81548173ffffffffffffffffffffffffffffffffffffffff021916908373ffffffffffffffffffffffffffffffffffffffff1602179055505050565b610618610707565b73ffffffffffffffffffffffffffffffffffffffff166106366102c8565b73ffffffffffffffffffffffffffffffffffffffff161461068c576040517f08c379a000000000000000000000000000000000000000000000000000000000815260040161068390610cd3565b60405180910390fd5b600073ffffffffffffffffffffffffffffffffffffffff168173ffffffffffffffffffffffffffffffffffffffff16036106fb576040517f08c379a00000000000000000000000000000000000000000000000000000000081526004016106f290610f61565b60405180910390fd5b6107048161070f565b50565b600033905090565b60008060009054906101000a900473ffffffffffffffffffffffffffffffffffffffff169050816000806101000a81548173ffffffffffffffffffffffffffffffffffffffff021916908373ffffffffffffffffffffffffffffffffffffffff1602179055508173ffffffffffffffffffffffffffffffffffffffff168173ffffffffffffffffffffffffffffffffffffffff167f8be0079c531659141344cd1fd0a4f28419497f9722a3daafe3b4186f6b6457e060405160405180910390a35050565b8280546107df90610c03565b90600052602060002090601f0160209004810192826108015760008555610848565b82601f1061081a57805160ff1916838001178555610848565b82800160010185558215610848579182015b8281111561084757825182559160200191906001019061082c565b5b5090506108559190610859565b5090565b5b8082111561087257600081600090555060010161085a565b5090565b6000604051905090565b600080fd5b600080fd5b600073ffffffffffffffffffffffffffffffffffffffff82169050919050565b60006108b58261088a565b9050919050565b6108c5816108aa565b81146108d057600080fd5b50565b6000813590506108e2816108bc565b92915050565b6000602082840312156108fe576108fd610880565b5b600061090c848285016108d3565b91505092915050565b600081519050919050565b600082825260208201905092915050565b60005b8381101561094f578082015181840152602081019050610934565b8381111561095e576000848401525b50505050565b6000601f19601f8301169050919050565b600061098082610915565b61098a8185610920565b935061099a818560208601610931565b6109a381610964565b840191505092915050565b600060208201905081810360008301526109c88184610975565b905092915050565b600080fd5b600080fd5b7f4e487b7100000000000000000000000000000000000000000000000000000000600052604160045260246000fd5b610a1282610964565b810181811067ffffffffffffffff82111715610a3157610a306109da565b5b80604052505050565b6000610a44610876565b9050610a508282610a09565b919050565b600067ffffffffffffffff821115610a7057610a6f6109da565b5b610a7982610964565b9050602081019050919050565b82818337600083830152505050565b6000610aa8610aa384610a55565b610a3a565b905082815260208101848484011115610ac457610ac36109d5565b5b610acf848285610a86565b509392505050565b600082601f830112610aec57610aeb6109d0565b5b8135610afc848260208601610a95565b91505092915050565b600060208284031215610b1b57610b1a610880565b5b600082013567ffffffffffffffff811115610b3957610b38610885565b5b610b4584828501610ad7565b91505092915050565b610b57816108aa565b82525050565b6000602082019050610b726000830184610b4e565b92915050565b60008060408385031215610b8f57610b8e610880565b5b6000610b9d858286016108d3565b925050602083013567ffffffffffffffff811115610bbe57610bbd610885565b5b610bca85828601610ad7565b9150509250929050565b7f4e487b7100000000000000000000000000000000000000000000000000000000600052602260045260246000fd5b60006002820490506001821680610c1b57607f821691505b602082108103610c2e57610c2d610bd4565b5b50919050565b600081905092915050565b6000610c4a82610915565b610c548185610c34565b9350610c64818560208601610931565b80840191505092915050565b6000610c7c8284610c3f565b915081905092915050565b7f4f776e61626c653a2063616c6c6572206973206e6f7420746865206f776e6572600082015250565b6000610cbd602083610920565b9150610cc882610c87565b602082019050919050565b60006020820190508181036000830152610cec81610cb0565b9050919050565b7f57616c6c657420416464726573732073686f756c642062652076616c69640000600082015250565b6000610d29601e83610920565b9150610d3482610cf3565b602082019050919050565b60006020820190508181036000830152610d5881610d1c565b9050919050565b7f5573657249642073686f756c64206e6f7420656d707479000000000000000000600082015250565b6000610d95601783610920565b9150610da082610d5f565b602082019050919050565b60006020820190508181036000830152610dc481610d88565b9050919050565b7f57616c6c6574204164647265737320697320616c7265616479206c696e6b656460008201527f20746f20616e6f74686572205573657249640000000000000000000000000000602082015250565b6000610e27603283610920565b9150610e3282610dcb565b604082019050919050565b60006020820190508181036000830152610e5681610e1a565b9050919050565b7f55736572496420697320616c7265616479206c696e6b656420746f20616e6f7460008201527f6865722057616c6c657420416464726573730000000000000000000000000000602082015250565b6000610eb9603283610920565b9150610ec482610e5d565b604082019050919050565b60006020820190508181036000830152610ee881610eac565b9050919050565b7f4f776e61626c653a206e6577206f776e657220697320746865207a65726f206160008201527f6464726573730000000000000000000000000000000000000000000000000000602082015250565b6000610f4b602683610920565b9150610f5682610eef565b604082019050919050565b60006020820190508181036000830152610f7a81610f3e565b905091905056fea2646970667358221220de9ab2d3dea18f8ca6a103d192f9112c5e554fccc65d8598b9c970505471112964736f6c634300080d0033",
  "immutableReferences": {},
  "source": "// SPDX-License-Identifier: MIT\r\n\r\npragma solidity ^0.8.13;\r\n\r\nimport \"./ILinkWallet.sol\";\r\nimport \"@openzeppelin/contracts/access/Ownable.sol\";\r\n\r\ncontract LinkWallet is ILinkWallet, Ownable {\r\n    mapping(address => string) linkedWallets;\r\n    mapping(string => address) linkedUsers;\r\n\r\n    function linkWallet(address _walletAddress, string memory _userId)\r\n        public\r\n        onlyOwner\r\n    {\r\n        require(_walletAddress != address(0), \"Wallet Address should be valid\");\r\n        require(bytes(_userId).length > 0, \"UserId should not empty\");\r\n        require(\r\n            bytes(linkedWallets[_walletAddress]).length == 0,\r\n            \"Wallet Address is already linked to another UserId\"\r\n        );\r\n        require(\r\n            linkedUsers[_userId] == address(0),\r\n            \"UserId is already linked to another Wallet Address\"\r\n        );\r\n        linkedWallets[_walletAddress] = _userId;\r\n        linkedUsers[_userId] = _walletAddress;\r\n    }\r\n\r\n    function getUserIdByWalletAddress(address _walletAddress)\r\n        public\r\n        view\r\n        returns (string memory)\r\n    {\r\n        return linkedWallets[_walletAddress];\r\n    }\r\n\r\n    function getWalletAddressByUserId(string memory _userId)\r\n        public\r\n        view\r\n        returns (address)\r\n    {\r\n        return linkedUsers[_userId];\r\n    }\r\n}\r\n",
  "sourcePath": "D:\\code\\TheDeadKingdom\\Contract\\contracts\\ethereum\\LinkWallet.sol",
  "compiler": {
    "name": "solc",
    "version": "0.8.13+commit.abaa5c0e.Emscripten.clang"
  },
  "schemaVersion": "3.4.7",
  "updatedAt": "2022-08-28T05:31:29.586Z",
  "networkType": "ethereum",
  "devdoc": {
    "kind": "dev",
    "methods": {
      "owner()": {
        "details": "Returns the address of the current owner."
      },
      "renounceOwnership()": {
        "details": "Leaves the contract without owner. It will not be possible to call `onlyOwner` functions anymore. Can only be called by the current owner. NOTE: Renouncing ownership will leave the contract without an owner, thereby removing any functionality that is only available to the owner."
      },
      "transferOwnership(address)": {
        "details": "Transfers ownership of the contract to a new account (`newOwner`). Can only be called by the current owner."
      }
    },
    "version": 1
  },
  "userdoc": {
    "kind": "user",
    "methods": {},
    "version": 1
  }
}