{
  "contractName": "Marketplace",
  "abi": [
    {
      "inputs": [
        {
          "internalType": "address",
          "name": "_deathKingdomCoinContract",
          "type": "address"
        },
        {
          "internalType": "address",
          "name": "_linkWalletAddress",
          "type": "address"
        }
      ],
      "stateMutability": "nonpayable",
      "type": "constructor"
    },
    {
      "anonymous": false,
      "inputs": [
        {
          "indexed": false,
          "internalType": "uint256",
          "name": "marketItemId",
          "type": "uint256"
        },
        {
          "indexed": false,
          "internalType": "address",
          "name": "nftContract",
          "type": "address"
        },
        {
          "indexed": false,
          "internalType": "uint256",
          "name": "tokenId",
          "type": "uint256"
        },
        {
          "indexed": false,
          "internalType": "address",
          "name": "seller",
          "type": "address"
        },
        {
          "indexed": false,
          "internalType": "address",
          "name": "buyer",
          "type": "address"
        },
        {
          "indexed": false,
          "internalType": "uint256",
          "name": "price",
          "type": "uint256"
        }
      ],
      "name": "NFTListed",
      "type": "event"
    },
    {
      "anonymous": false,
      "inputs": [
        {
          "indexed": false,
          "internalType": "uint256",
          "name": "marketItemId",
          "type": "uint256"
        },
        {
          "indexed": false,
          "internalType": "address",
          "name": "nftContract",
          "type": "address"
        },
        {
          "indexed": false,
          "internalType": "uint256",
          "name": "tokenId",
          "type": "uint256"
        },
        {
          "indexed": false,
          "internalType": "address",
          "name": "seller",
          "type": "address"
        },
        {
          "indexed": false,
          "internalType": "address",
          "name": "buyer",
          "type": "address"
        },
        {
          "indexed": false,
          "internalType": "uint256",
          "name": "price",
          "type": "uint256"
        }
      ],
      "name": "NFTSaleCanceled",
      "type": "event"
    },
    {
      "anonymous": false,
      "inputs": [
        {
          "indexed": false,
          "internalType": "uint256",
          "name": "marketItemId",
          "type": "uint256"
        },
        {
          "indexed": false,
          "internalType": "address",
          "name": "nftContract",
          "type": "address"
        },
        {
          "indexed": false,
          "internalType": "uint256",
          "name": "tokenId",
          "type": "uint256"
        },
        {
          "indexed": false,
          "internalType": "address",
          "name": "seller",
          "type": "address"
        },
        {
          "indexed": false,
          "internalType": "address",
          "name": "buyer",
          "type": "address"
        },
        {
          "indexed": false,
          "internalType": "uint256",
          "name": "price",
          "type": "uint256"
        }
      ],
      "name": "NFTSold",
      "type": "event"
    },
    {
      "anonymous": false,
      "inputs": [
        {
          "indexed": true,
          "internalType": "address",
          "name": "previousOwner",
          "type": "address"
        },
        {
          "indexed": true,
          "internalType": "address",
          "name": "newOwner",
          "type": "address"
        }
      ],
      "name": "OwnershipTransferred",
      "type": "event"
    },
    {
      "inputs": [],
      "name": "deathKingdomCoin",
      "outputs": [
        {
          "internalType": "contract IERC20",
          "name": "",
          "type": "address"
        }
      ],
      "stateMutability": "view",
      "type": "function",
      "constant": true
    },
    {
      "inputs": [],
      "name": "deno",
      "outputs": [
        {
          "internalType": "uint256",
          "name": "",
          "type": "uint256"
        }
      ],
      "stateMutability": "view",
      "type": "function",
      "constant": true
    },
    {
      "inputs": [],
      "name": "linkWallet",
      "outputs": [
        {
          "internalType": "contract ILinkWallet",
          "name": "",
          "type": "address"
        }
      ],
      "stateMutability": "view",
      "type": "function",
      "constant": true
    },
    {
      "inputs": [],
      "name": "owner",
      "outputs": [
        {
          "internalType": "address",
          "name": "",
          "type": "address"
        }
      ],
      "stateMutability": "view",
      "type": "function",
      "constant": true
    },
    {
      "inputs": [],
      "name": "platformFee",
      "outputs": [
        {
          "internalType": "uint256",
          "name": "",
          "type": "uint256"
        }
      ],
      "stateMutability": "view",
      "type": "function",
      "constant": true
    },
    {
      "inputs": [],
      "name": "renounceOwnership",
      "outputs": [],
      "stateMutability": "nonpayable",
      "type": "function"
    },
    {
      "inputs": [
        {
          "internalType": "address",
          "name": "newOwner",
          "type": "address"
        }
      ],
      "name": "transferOwnership",
      "outputs": [],
      "stateMutability": "nonpayable",
      "type": "function"
    },
    {
      "inputs": [
        {
          "internalType": "address",
          "name": "_nftContract",
          "type": "address"
        },
        {
          "internalType": "uint256",
          "name": "_tokenId",
          "type": "uint256"
        },
        {
          "internalType": "uint256",
          "name": "_price",
          "type": "uint256"
        }
      ],
      "name": "listNft",
      "outputs": [],
      "stateMutability": "nonpayable",
      "type": "function"
    },
    {
      "inputs": [
        {
          "internalType": "uint256",
          "name": "_marketItemId",
          "type": "uint256"
        }
      ],
      "name": "cancelSellNft",
      "outputs": [],
      "stateMutability": "nonpayable",
      "type": "function"
    },
    {
      "inputs": [
        {
          "internalType": "uint256",
          "name": "_marketItemId",
          "type": "uint256"
        }
      ],
      "name": "buyNft",
      "outputs": [],
      "stateMutability": "payable",
      "type": "function",
      "payable": true
    },
    {
      "inputs": [
        {
          "internalType": "uint256",
          "name": "_marketItemId",
          "type": "uint256"
        }
      ],
      "name": "getMarketItem",
      "outputs": [
        {
          "components": [
            {
              "internalType": "uint256",
              "name": "marketItemId",
              "type": "uint256"
            },
            {
              "internalType": "uint256",
              "name": "tokenId",
              "type": "uint256"
            },
            {
              "internalType": "uint256",
              "name": "price",
              "type": "uint256"
            },
            {
              "internalType": "address payable",
              "name": "seller",
              "type": "address"
            },
            {
              "internalType": "address payable",
              "name": "buyer",
              "type": "address"
            },
            {
              "internalType": "address",
              "name": "nftContract",
              "type": "address"
            },
            {
              "internalType": "bool",
              "name": "isSelling",
              "type": "bool"
            }
          ],
          "internalType": "struct Marketplace.NFTMarketItem",
          "name": "",
          "type": "tuple"
        }
      ],
      "stateMutability": "view",
      "type": "function",
      "constant": true
    },
    {
      "inputs": [],
      "name": "getListingNfts",
      "outputs": [
        {
          "components": [
            {
              "internalType": "uint256",
              "name": "marketItemId",
              "type": "uint256"
            },
            {
              "internalType": "uint256",
              "name": "tokenId",
              "type": "uint256"
            },
            {
              "internalType": "uint256",
              "name": "price",
              "type": "uint256"
            },
            {
              "internalType": "address payable",
              "name": "seller",
              "type": "address"
            },
            {
              "internalType": "address payable",
              "name": "buyer",
              "type": "address"
            },
            {
              "internalType": "address",
              "name": "nftContract",
              "type": "address"
            },
            {
              "internalType": "bool",
              "name": "isSelling",
              "type": "bool"
            }
          ],
          "internalType": "struct Marketplace.NFTMarketItem[]",
          "name": "",
          "type": "tuple[]"
        }
      ],
      "stateMutability": "view",
      "type": "function",
      "constant": true
    },
    {
      "inputs": [],
      "name": "getMyListingNfts",
      "outputs": [
        {
          "components": [
            {
              "internalType": "uint256",
              "name": "marketItemId",
              "type": "uint256"
            },
            {
              "internalType": "uint256",
              "name": "tokenId",
              "type": "uint256"
            },
            {
              "internalType": "uint256",
              "name": "price",
              "type": "uint256"
            },
            {
              "internalType": "address payable",
              "name": "seller",
              "type": "address"
            },
            {
              "internalType": "address payable",
              "name": "buyer",
              "type": "address"
            },
            {
              "internalType": "address",
              "name": "nftContract",
              "type": "address"
            },
            {
              "internalType": "bool",
              "name": "isSelling",
              "type": "bool"
            }
          ],
          "internalType": "struct Marketplace.NFTMarketItem[]",
          "name": "",
          "type": "tuple[]"
        }
      ],
      "stateMutability": "view",
      "type": "function",
      "constant": true
    },
    {
      "inputs": [
        {
          "internalType": "uint256",
          "name": "_tokenId",
          "type": "uint256"
        }
      ],
      "name": "getNftSellHistory",
      "outputs": [
        {
          "components": [
            {
              "internalType": "uint256",
              "name": "marketItemId",
              "type": "uint256"
            },
            {
              "internalType": "uint256",
              "name": "tokenId",
              "type": "uint256"
            },
            {
              "internalType": "uint256",
              "name": "price",
              "type": "uint256"
            },
            {
              "internalType": "address payable",
              "name": "seller",
              "type": "address"
            },
            {
              "internalType": "address payable",
              "name": "buyer",
              "type": "address"
            },
            {
              "internalType": "address",
              "name": "nftContract",
              "type": "address"
            },
            {
              "internalType": "bool",
              "name": "isSelling",
              "type": "bool"
            }
          ],
          "internalType": "struct Marketplace.NFTMarketItem[]",
          "name": "",
          "type": "tuple[]"
        }
      ],
      "stateMutability": "view",
      "type": "function",
      "constant": true
    }
  ],
  "bytecode": "0x608060405260196006556103e86007553480156200001c57600080fd5b506040516200365c3803806200365c83398181016040528101906200004291906200022c565b60016000819055506200006a6200005e620000f460201b60201c565b620000fc60201b60201c565b81600460006101000a81548173ffffffffffffffffffffffffffffffffffffffff021916908373ffffffffffffffffffffffffffffffffffffffff16021790555080600560006101000a81548173ffffffffffffffffffffffffffffffffffffffff021916908373ffffffffffffffffffffffffffffffffffffffff160217905550505062000273565b600033905090565b6000600160009054906101000a900473ffffffffffffffffffffffffffffffffffffffff16905081600160006101000a81548173ffffffffffffffffffffffffffffffffffffffff021916908373ffffffffffffffffffffffffffffffffffffffff1602179055508173ffffffffffffffffffffffffffffffffffffffff168173ffffffffffffffffffffffffffffffffffffffff167f8be0079c531659141344cd1fd0a4f28419497f9722a3daafe3b4186f6b6457e060405160405180910390a35050565b600080fd5b600073ffffffffffffffffffffffffffffffffffffffff82169050919050565b6000620001f482620001c7565b9050919050565b6200020681620001e7565b81146200021257600080fd5b50565b6000815190506200022681620001fb565b92915050565b60008060408385031215620002465762000245620001c2565b5b6000620002568582860162000215565b9250506020620002698582860162000215565b9150509250929050565b6133d980620002836000396000f3fe6080604052600436106100dd5760003560e01c8063715018a61161007f578063c7be7a4911610059578063c7be7a491461026b578063c922b17c146102a8578063d34c127e146102d1578063f2fde38b1461030e576100dd565b8063715018a6146101fe5780638da5cb5b146102155780639fee5bc614610240576100dd565b806326232a2e116100bb57806326232a2e14610154578063443c2fd71461017f5780634cb55876146101aa57806359f48271146101d5576100dd565b806314d889cf146100e25780631a4b1a841461010d578063243adbdd14610138575b600080fd5b3480156100ee57600080fd5b506100f7610337565b6040516101049190612307565b60405180910390f35b34801561011957600080fd5b5061012261035d565b60405161012f9190612343565b60405180910390f35b610152600480360381019061014d91906123a8565b610383565b005b34801561016057600080fd5b50610169610ca0565b60405161017691906123e4565b60405180910390f35b34801561018b57600080fd5b50610194610ca6565b6040516101a191906125a8565b60405180910390f35b3480156101b657600080fd5b506101bf610f18565b6040516101cc91906125a8565b60405180910390f35b3480156101e157600080fd5b506101fc60048036038101906101f791906123a8565b6112c7565b005b34801561020a57600080fd5b506102136115d4565b005b34801561022157600080fd5b5061022a61165c565b60405161023791906125d9565b60405180910390f35b34801561024c57600080fd5b50610255611686565b60405161026291906123e4565b60405180910390f35b34801561027757600080fd5b50610292600480360381019061028d91906123a8565b61168c565b60405161029f9190612682565b60405180910390f35b3480156102b457600080fd5b506102cf60048036038101906102ca91906126c9565b611885565b005b3480156102dd57600080fd5b506102f860048036038101906102f391906123a8565b611d03565b60405161030591906125a8565b60405180910390f35b34801561031a57600080fd5b506103356004803603810190610330919061271c565b61201e565b005b600460009054906101000a900473ffffffffffffffffffffffffffffffffffffffff1681565b600560009054906101000a900473ffffffffffffffffffffffffffffffffffffffff1681565b80600081116103c7576040517f08c379a00000000000000000000000000000000000000000000000000000000081526004016103be906127a6565b60405180910390fd5b6103d16002612115565b811115610413576040517f08c379a000000000000000000000000000000000000000000000000000000000815260040161040a90612812565b60405180910390fd5b6000600560009054906101000a900473ffffffffffffffffffffffffffffffffffffffff1673ffffffffffffffffffffffffffffffffffffffff166303fb0114336040518263ffffffff1660e01b815260040161047091906125d9565b600060405180830381865afa15801561048d573d6000803e3d6000fd5b505050506040513d6000823e3d601f19601f820116820180604052508101906104b6919061299c565b51116104f7576040517f08c379a00000000000000000000000000000000000000000000000000000000081526004016104ee90612a57565b60405180910390fd5b6000600860008481526020019081526020016000209050600115158160050160149054906101000a900460ff16151514610566576040517f08c379a000000000000000000000000000000000000000000000000000000000815260040161055d90612ac3565b60405180910390fd5b3373ffffffffffffffffffffffffffffffffffffffff168160030160009054906101000a900473ffffffffffffffffffffffffffffffffffffffff1673ffffffffffffffffffffffffffffffffffffffff16036105f8576040517f08c379a00000000000000000000000000000000000000000000000000000000081526004016105ef90612b2f565b60405180910390fd5b6000816002015490506000600754600654836106149190612b7e565b61061e9190612c07565b90506000600460009054906101000a900473ffffffffffffffffffffffffffffffffffffffff1673ffffffffffffffffffffffffffffffffffffffff166370a08231336040518263ffffffff1660e01b815260040161067d91906125d9565b602060405180830381865afa15801561069a573d6000803e3d6000fd5b505050506040513d601f19601f820116820180604052508101906106be9190612c4d565b905082811015610703576040517f08c379a00000000000000000000000000000000000000000000000000000000081526004016106fa90612cec565b60405180910390fd5b6000600460009054906101000a900473ffffffffffffffffffffffffffffffffffffffff1673ffffffffffffffffffffffffffffffffffffffff1663dd62ed3e33306040518363ffffffff1660e01b8152600401610762929190612d0c565b602060405180830381865afa15801561077f573d6000803e3d6000fd5b505050506040513d601f19601f820116820180604052508101906107a39190612c4d565b9050838110156107e8576040517f08c379a00000000000000000000000000000000000000000000000000000000081526004016107df90612da7565b60405180910390fd5b600460009054906101000a900473ffffffffffffffffffffffffffffffffffffffff1673ffffffffffffffffffffffffffffffffffffffff166323b872dd3330876040518463ffffffff1660e01b815260040161084793929190612dc7565b6020604051808303816000875af1158015610866573d6000803e3d6000fd5b505050506040513d601f19601f8201168201806040525081019061088a9190612e2a565b50600460009054906101000a900473ffffffffffffffffffffffffffffffffffffffff1673ffffffffffffffffffffffffffffffffffffffff1663a9059cbb8660030160009054906101000a900473ffffffffffffffffffffffffffffffffffffffff1685876108fa9190612e57565b6040518363ffffffff1660e01b8152600401610917929190612eac565b6020604051808303816000875af1158015610936573d6000803e3d6000fd5b505050506040513d601f19601f8201168201806040525081019061095a9190612e2a565b50600460009054906101000a900473ffffffffffffffffffffffffffffffffffffffff1673ffffffffffffffffffffffffffffffffffffffff1663a9059cbb6109a161165c565b600460009054906101000a900473ffffffffffffffffffffffffffffffffffffffff1673ffffffffffffffffffffffffffffffffffffffff166370a08231306040518263ffffffff1660e01b81526004016109fc91906125d9565b602060405180830381865afa158015610a19573d6000803e3d6000fd5b505050506040513d601f19601f82011682018060405250810190610a3d9190612c4d565b6040518363ffffffff1660e01b8152600401610a5a929190612ed5565b6020604051808303816000875af1158015610a79573d6000803e3d6000fd5b505050506040513d601f19601f82011682018060405250810190610a9d9190612e2a565b50338560040160006101000a81548173ffffffffffffffffffffffffffffffffffffffff021916908373ffffffffffffffffffffffffffffffffffffffff160217905550610aeb6003612123565b8460050160009054906101000a900473ffffffffffffffffffffffffffffffffffffffff1673ffffffffffffffffffffffffffffffffffffffff166323b872dd303388600101546040518463ffffffff1660e01b8152600401610b5093929190612dc7565b600060405180830381600087803b158015610b6a57600080fd5b505af1158015610b7e573d6000803e3d6000fd5b5050505060008560050160146101000a81548160ff021916908315150217905550338560040160006101000a81548173ffffffffffffffffffffffffffffffffffffffff021916908373ffffffffffffffffffffffffffffffffffffffff1602179055507ffbd14ef83c9e36d4cd05cdc496d3b3a07da3041679b4142908d0ef3cef210dc485600001548660050160009054906101000a900473ffffffffffffffffffffffffffffffffffffffff1687600101548860030160009054906101000a900473ffffffffffffffffffffffffffffffffffffffff168960040160009054906101000a900473ffffffffffffffffffffffffffffffffffffffff1689604051610c8f96959493929190612efe565b60405180910390a150505050505050565b60065481565b60606000610cb46002612115565b90506000610cc26003612115565b82610ccd9190612e57565b905060008167ffffffffffffffff811115610ceb57610cea61284d565b5b604051908082528060200260200182016040528015610d2457816020015b610d11612207565b815260200190600190039081610d095790505b5090506000805b84811015610f0d5760086000600183610d449190612f5f565b815260200190815260200160002060050160149054906101000a900460ff1615610efa5760086000600183610d799190612f5f565b81526020019081526020016000206040518060e00160405290816000820154815260200160018201548152602001600282015481526020016003820160009054906101000a900473ffffffffffffffffffffffffffffffffffffffff1673ffffffffffffffffffffffffffffffffffffffff1673ffffffffffffffffffffffffffffffffffffffff1681526020016004820160009054906101000a900473ffffffffffffffffffffffffffffffffffffffff1673ffffffffffffffffffffffffffffffffffffffff1673ffffffffffffffffffffffffffffffffffffffff1681526020016005820160009054906101000a900473ffffffffffffffffffffffffffffffffffffffff1673ffffffffffffffffffffffffffffffffffffffff1673ffffffffffffffffffffffffffffffffffffffff1681526020016005820160149054906101000a900460ff161515151581525050838381518110610ee057610edf612fb5565b5b60200260200101819052508180610ef690612fe4565b9250505b8080610f0590612fe4565b915050610d2b565b508194505050505090565b60606000610f266002612115565b90506000805b82811015611004573373ffffffffffffffffffffffffffffffffffffffff1660086000600184610f5c9190612f5f565b815260200190815260200160002060030160009054906101000a900473ffffffffffffffffffffffffffffffffffffffff1673ffffffffffffffffffffffffffffffffffffffff16148015610fdd575060086000600183610fbd9190612f5f565b815260200190815260200160002060050160149054906101000a900460ff165b15610ff1578180610fed90612fe4565b9250505b8080610ffc90612fe4565b915050610f2c565b5060008167ffffffffffffffff8111156110215761102061284d565b5b60405190808252806020026020018201604052801561105a57816020015b611047612207565b81526020019060019003908161103f5790505b5090506000805b848110156112bc573373ffffffffffffffffffffffffffffffffffffffff16600860006001846110919190612f5f565b815260200190815260200160002060030160009054906101000a900473ffffffffffffffffffffffffffffffffffffffff1673ffffffffffffffffffffffffffffffffffffffff161480156111125750600860006001836110f29190612f5f565b815260200190815260200160002060050160149054906101000a900460ff165b156112a957600860006001836111289190612f5f565b81526020019081526020016000206040518060e00160405290816000820154815260200160018201548152602001600282015481526020016003820160009054906101000a900473ffffffffffffffffffffffffffffffffffffffff1673ffffffffffffffffffffffffffffffffffffffff1673ffffffffffffffffffffffffffffffffffffffff1681526020016004820160009054906101000a900473ffffffffffffffffffffffffffffffffffffffff1673ffffffffffffffffffffffffffffffffffffffff1673ffffffffffffffffffffffffffffffffffffffff1681526020016005820160009054906101000a900473ffffffffffffffffffffffffffffffffffffffff1673ffffffffffffffffffffffffffffffffffffffff1673ffffffffffffffffffffffffffffffffffffffff1681526020016005820160149054906101000a900460ff16151515158152505083838151811061128f5761128e612fb5565b5b602002602001018190525081806112a590612fe4565b9250505b80806112b490612fe4565b915050611061565b508194505050505090565b806000811161130b576040517f08c379a0000000000000000000000000000000000000000000000000000000008152600401611302906127a6565b60405180910390fd5b6113156002612115565b811115611357576040517f08c379a000000000000000000000000000000000000000000000000000000000815260040161134e90612812565b60405180910390fd5b60006008600084815260200190815260200160002090508060030160009054906101000a900473ffffffffffffffffffffffffffffffffffffffff1673ffffffffffffffffffffffffffffffffffffffff163373ffffffffffffffffffffffffffffffffffffffff1614611400576040517f08c379a00000000000000000000000000000000000000000000000000000000081526004016113f790613078565b60405180910390fd5b600115158160050160149054906101000a900460ff16151514611458576040517f08c379a000000000000000000000000000000000000000000000000000000000815260040161144f90612ac3565b60405180910390fd5b60008160050160146101000a81548160ff0219169083151502179055508060050160009054906101000a900473ffffffffffffffffffffffffffffffffffffffff1673ffffffffffffffffffffffffffffffffffffffff166323b872dd303384600101546040518463ffffffff1660e01b81526004016114da93929190612dc7565b600060405180830381600087803b1580156114f457600080fd5b505af1158015611508573d6000803e3d6000fd5b505050506115166003612123565b7f59c5c697698d4245f5931b2d83da5c09c16445194cb3e1adf9cef2cc3b9d722b81600001548260050160009054906101000a900473ffffffffffffffffffffffffffffffffffffffff1683600101548460030160009054906101000a900473ffffffffffffffffffffffffffffffffffffffff168560040160009054906101000a900473ffffffffffffffffffffffffffffffffffffffff1686600201546040516115c796959493929190612efe565b60405180910390a1505050565b6115dc612139565b73ffffffffffffffffffffffffffffffffffffffff166115fa61165c565b73ffffffffffffffffffffffffffffffffffffffff1614611650576040517f08c379a0000000000000000000000000000000000000000000000000000000008152600401611647906130e4565b60405180910390fd5b61165a6000612141565b565b6000600160009054906101000a900473ffffffffffffffffffffffffffffffffffffffff16905090565b60075481565b611694612207565b81600081116116d8576040517f08c379a00000000000000000000000000000000000000000000000000000000081526004016116cf906127a6565b60405180910390fd5b6116e26002612115565b811115611724576040517f08c379a000000000000000000000000000000000000000000000000000000000815260040161171b90612812565b60405180910390fd5b600860008481526020019081526020016000206040518060e00160405290816000820154815260200160018201548152602001600282015481526020016003820160009054906101000a900473ffffffffffffffffffffffffffffffffffffffff1673ffffffffffffffffffffffffffffffffffffffff1673ffffffffffffffffffffffffffffffffffffffff1681526020016004820160009054906101000a900473ffffffffffffffffffffffffffffffffffffffff1673ffffffffffffffffffffffffffffffffffffffff1673ffffffffffffffffffffffffffffffffffffffff1681526020016005820160009054906101000a900473ffffffffffffffffffffffffffffffffffffffff1673ffffffffffffffffffffffffffffffffffffffff1673ffffffffffffffffffffffffffffffffffffffff1681526020016005820160149054906101000a900460ff161515151581525050915050919050565b6000600560009054906101000a900473ffffffffffffffffffffffffffffffffffffffff1673ffffffffffffffffffffffffffffffffffffffff166303fb0114336040518263ffffffff1660e01b81526004016118e291906125d9565b600060405180830381865afa1580156118ff573d6000803e3d6000fd5b505050506040513d6000823e3d601f19601f82011682018060405250810190611928919061299c565b5111611969576040517f08c379a000000000000000000000000000000000000000000000000000000000815260040161196090613176565b60405180910390fd5b600081116119ac576040517f08c379a00000000000000000000000000000000000000000000000000000000081526004016119a3906131e2565b60405180910390fd5b3373ffffffffffffffffffffffffffffffffffffffff168373ffffffffffffffffffffffffffffffffffffffff16636352211e846040518263ffffffff1660e01b81526004016119fc91906123e4565b602060405180830381865afa158015611a19573d6000803e3d6000fd5b505050506040513d601f19601f82011682018060405250810190611a3d9190613217565b73ffffffffffffffffffffffffffffffffffffffff1614611a93576040517f08c379a0000000000000000000000000000000000000000000000000000000008152600401611a8a90613290565b60405180910390fd5b611a9d6002612123565b6000611aa96002612115565b90506040518060e001604052808281526020018481526020018381526020013373ffffffffffffffffffffffffffffffffffffffff168152602001600073ffffffffffffffffffffffffffffffffffffffff1681526020018573ffffffffffffffffffffffffffffffffffffffff168152602001600115158152506008600083815260200190815260200160002060008201518160000155602082015181600101556040820151816002015560608201518160030160006101000a81548173ffffffffffffffffffffffffffffffffffffffff021916908373ffffffffffffffffffffffffffffffffffffffff16021790555060808201518160040160006101000a81548173ffffffffffffffffffffffffffffffffffffffff021916908373ffffffffffffffffffffffffffffffffffffffff16021790555060a08201518160050160006101000a81548173ffffffffffffffffffffffffffffffffffffffff021916908373ffffffffffffffffffffffffffffffffffffffff16021790555060c08201518160050160146101000a81548160ff0219169083151502179055509050508373ffffffffffffffffffffffffffffffffffffffff166323b872dd3330866040518463ffffffff1660e01b8152600401611c8a93929190612dc7565b600060405180830381600087803b158015611ca457600080fd5b505af1158015611cb8573d6000803e3d6000fd5b505050507f837b3a4a47f6aedac2e74f9f4be36ee333052be462fd01f2282e34cfd3a158a6818585333087604051611cf5969594939291906132b0565b60405180910390a150505050565b60606000611d116002612115565b90506000805b82811015611da4578460086000600184611d319190612f5f565b815260200190815260200160002060010154148015611d7d575060086000600183611d5c9190612f5f565b815260200190815260200160002060050160149054906101000a900460ff16155b15611d91578180611d8d90612fe4565b9250505b8080611d9c90612fe4565b915050611d17565b5060008167ffffffffffffffff811115611dc157611dc061284d565b5b604051908082528060200260200182016040528015611dfa57816020015b611de7612207565b815260200190600190039081611ddf5790505b5090506000805b84811015612011578660086000600184611e1b9190612f5f565b815260200190815260200160002060010154148015611e67575060086000600183611e469190612f5f565b815260200190815260200160002060050160149054906101000a900460ff16155b15611ffe5760086000600183611e7d9190612f5f565b81526020019081526020016000206040518060e00160405290816000820154815260200160018201548152602001600282015481526020016003820160009054906101000a900473ffffffffffffffffffffffffffffffffffffffff1673ffffffffffffffffffffffffffffffffffffffff1673ffffffffffffffffffffffffffffffffffffffff1681526020016004820160009054906101000a900473ffffffffffffffffffffffffffffffffffffffff1673ffffffffffffffffffffffffffffffffffffffff1673ffffffffffffffffffffffffffffffffffffffff1681526020016005820160009054906101000a900473ffffffffffffffffffffffffffffffffffffffff1673ffffffffffffffffffffffffffffffffffffffff1673ffffffffffffffffffffffffffffffffffffffff1681526020016005820160149054906101000a900460ff161515151581525050838381518110611fe457611fe3612fb5565b5b60200260200101819052508180611ffa90612fe4565b9250505b808061200990612fe4565b915050611e01565b5081945050505050919050565b612026612139565b73ffffffffffffffffffffffffffffffffffffffff1661204461165c565b73ffffffffffffffffffffffffffffffffffffffff161461209a576040517f08c379a0000000000000000000000000000000000000000000000000000000008152600401612091906130e4565b60405180910390fd5b600073ffffffffffffffffffffffffffffffffffffffff168173ffffffffffffffffffffffffffffffffffffffff1603612109576040517f08c379a000000000000000000000000000000000000000000000000000000000815260040161210090613383565b60405180910390fd5b61211281612141565b50565b600081600001549050919050565b6001816000016000828254019250508190555050565b600033905090565b6000600160009054906101000a900473ffffffffffffffffffffffffffffffffffffffff16905081600160006101000a81548173ffffffffffffffffffffffffffffffffffffffff021916908373ffffffffffffffffffffffffffffffffffffffff1602179055508173ffffffffffffffffffffffffffffffffffffffff168173ffffffffffffffffffffffffffffffffffffffff167f8be0079c531659141344cd1fd0a4f28419497f9722a3daafe3b4186f6b6457e060405160405180910390a35050565b6040518060e00160405280600081526020016000815260200160008152602001600073ffffffffffffffffffffffffffffffffffffffff168152602001600073ffffffffffffffffffffffffffffffffffffffff168152602001600073ffffffffffffffffffffffffffffffffffffffff1681526020016000151581525090565b600073ffffffffffffffffffffffffffffffffffffffff82169050919050565b6000819050919050565b60006122cd6122c86122c384612288565b6122a8565b612288565b9050919050565b60006122df826122b2565b9050919050565b60006122f1826122d4565b9050919050565b612301816122e6565b82525050565b600060208201905061231c60008301846122f8565b92915050565b600061232d826122d4565b9050919050565b61233d81612322565b82525050565b60006020820190506123586000830184612334565b92915050565b6000604051905090565b600080fd5b600080fd5b6000819050919050565b61238581612372565b811461239057600080fd5b50565b6000813590506123a28161237c565b92915050565b6000602082840312156123be576123bd612368565b5b60006123cc84828501612393565b91505092915050565b6123de81612372565b82525050565b60006020820190506123f960008301846123d5565b92915050565b600081519050919050565b600082825260208201905092915050565b6000819050602082019050919050565b61243481612372565b82525050565b600061244582612288565b9050919050565b6124558161243a565b82525050565b600061246682612288565b9050919050565b6124768161245b565b82525050565b60008115159050919050565b6124918161247c565b82525050565b60e0820160008201516124ad600085018261242b565b5060208201516124c0602085018261242b565b5060408201516124d3604085018261242b565b5060608201516124e6606085018261244c565b5060808201516124f9608085018261244c565b5060a082015161250c60a085018261246d565b5060c082015161251f60c0850182612488565b50505050565b60006125318383612497565b60e08301905092915050565b6000602082019050919050565b6000612555826123ff565b61255f818561240a565b935061256a8361241b565b8060005b8381101561259b5781516125828882612525565b975061258d8361253d565b92505060018101905061256e565b5085935050505092915050565b600060208201905081810360008301526125c2818461254a565b905092915050565b6125d38161245b565b82525050565b60006020820190506125ee60008301846125ca565b92915050565b60e08201600082015161260a600085018261242b565b50602082015161261d602085018261242b565b506040820151612630604085018261242b565b506060820151612643606085018261244c565b506080820151612656608085018261244c565b5060a082015161266960a085018261246d565b5060c082015161267c60c0850182612488565b50505050565b600060e08201905061269760008301846125f4565b92915050565b6126a68161245b565b81146126b157600080fd5b50565b6000813590506126c38161269d565b92915050565b6000806000606084860312156126e2576126e1612368565b5b60006126f0868287016126b4565b935050602061270186828701612393565b925050604061271286828701612393565b9150509250925092565b60006020828403121561273257612731612368565b5b6000612740848285016126b4565b91505092915050565b600082825260208201905092915050565b7f4d61726b65744974656d49642073686f756c64206265203e2030000000000000600082015250565b6000612790601a83612749565b915061279b8261275a565b602082019050919050565b600060208201905081810360008301526127bf81612783565b9050919050565b7f4d61726b65744974656d49642073686f756c6420626520657869737400000000600082015250565b60006127fc601c83612749565b9150612807826127c6565b602082019050919050565b6000602082019050818103600083015261282b816127ef565b9050919050565b600080fd5b600080fd5b6000601f19601f8301169050919050565b7f4e487b7100000000000000000000000000000000000000000000000000000000600052604160045260246000fd5b6128858261283c565b810181811067ffffffffffffffff821117156128a4576128a361284d565b5b80604052505050565b60006128b761235e565b90506128c3828261287c565b919050565b600067ffffffffffffffff8211156128e3576128e261284d565b5b6128ec8261283c565b9050602081019050919050565b60005b838110156129175780820151818401526020810190506128fc565b83811115612926576000848401525b50505050565b600061293f61293a846128c8565b6128ad565b90508281526020810184848401111561295b5761295a612837565b5b6129668482856128f9565b509392505050565b600082601f83011261298357612982612832565b5b815161299384826020860161292c565b91505092915050565b6000602082840312156129b2576129b1612368565b5b600082015167ffffffffffffffff8111156129d0576129cf61236d565b5b6129dc8482850161296e565b91505092915050565b7f57616c6c65742041646472657373206d757374206265206c696e6b656420776960008201527f74682075736572206163636f756e74206265666f7265206275794e6674000000602082015250565b6000612a41603d83612749565b9150612a4c826129e5565b604082019050919050565b60006020820190508181036000830152612a7081612a34565b9050919050565b7f4e4654206973206e6f742053656c6c696e670000000000000000000000000000600082015250565b6000612aad601283612749565b9150612ab882612a77565b602082019050919050565b60006020820190508181036000830152612adc81612aa0565b9050919050565b7f596f752063616e206e6f742062757920796f7572206f776e204e465400000000600082015250565b6000612b19601c83612749565b9150612b2482612ae3565b602082019050919050565b60006020820190508181036000830152612b4881612b0c565b9050919050565b7f4e487b7100000000000000000000000000000000000000000000000000000000600052601160045260246000fd5b6000612b8982612372565b9150612b9483612372565b9250817fffffffffffffffffffffffffffffffffffffffffffffffffffffffffffffffff0483118215151615612bcd57612bcc612b4f565b5b828202905092915050565b7f4e487b7100000000000000000000000000000000000000000000000000000000600052601260045260246000fd5b6000612c1282612372565b9150612c1d83612372565b925082612c2d57612c2c612bd8565b5b828204905092915050565b600081519050612c478161237c565b92915050565b600060208284031215612c6357612c62612368565b5b6000612c7184828501612c38565b91505092915050565b7f596f7520646f206e6f74206861766520656e6f75676820444b4320746f20627560008201527f792074686973204e465400000000000000000000000000000000000000000000602082015250565b6000612cd6602a83612749565b9150612ce182612c7a565b604082019050919050565b60006020820190508181036000830152612d0581612cc9565b9050919050565b6000604082019050612d2160008301856125ca565b612d2e60208301846125ca565b9392505050565b7f596f7520646f206e6f7420617070726f766520656e6f75676820444b4320746f60008201527f206275792074686973204e465400000000000000000000000000000000000000602082015250565b6000612d91602d83612749565b9150612d9c82612d35565b604082019050919050565b60006020820190508181036000830152612dc081612d84565b9050919050565b6000606082019050612ddc60008301866125ca565b612de960208301856125ca565b612df660408301846123d5565b949350505050565b612e078161247c565b8114612e1257600080fd5b50565b600081519050612e2481612dfe565b92915050565b600060208284031215612e4057612e3f612368565b5b6000612e4e84828501612e15565b91505092915050565b6000612e6282612372565b9150612e6d83612372565b925082821015612e8057612e7f612b4f565b5b828203905092915050565b6000612e96826122d4565b9050919050565b612ea681612e8b565b82525050565b6000604082019050612ec16000830185612e9d565b612ece60208301846123d5565b9392505050565b6000604082019050612eea60008301856125ca565b612ef760208301846123d5565b9392505050565b600060c082019050612f1360008301896123d5565b612f2060208301886125ca565b612f2d60408301876123d5565b612f3a6060830186612e9d565b612f476080830185612e9d565b612f5460a08301846123d5565b979650505050505050565b6000612f6a82612372565b9150612f7583612372565b9250827fffffffffffffffffffffffffffffffffffffffffffffffffffffffffffffffff03821115612faa57612fa9612b4f565b5b828201905092915050565b7f4e487b7100000000000000000000000000000000000000000000000000000000600052603260045260246000fd5b6000612fef82612372565b91507fffffffffffffffffffffffffffffffffffffffffffffffffffffffffffffffff820361302157613020612b4f565b5b600182019050919050565b7f596f7520617265206e6f74204e46542773204f776e6572000000000000000000600082015250565b6000613062601783612749565b915061306d8261302c565b602082019050919050565b6000602082019050818103600083015261309181613055565b9050919050565b7f4f776e61626c653a2063616c6c6572206973206e6f7420746865206f776e6572600082015250565b60006130ce602083612749565b91506130d982613098565b602082019050919050565b600060208201905081810360008301526130fd816130c1565b9050919050565b7f57616c6c65742041646472657373206d757374206265206c696e6b656420776960008201527f74682075736572206163636f756e74206265666f7265206c6973744e66740000602082015250565b6000613160603e83612749565b915061316b82613104565b604082019050919050565b6000602082019050818103600083015261318f81613153565b9050919050565b7f5072696365206d757374203e2030000000000000000000000000000000000000600082015250565b60006131cc600e83612749565b91506131d782613196565b602082019050919050565b600060208201905081810360008301526131fb816131bf565b9050919050565b6000815190506132118161269d565b92915050565b60006020828403121561322d5761322c612368565b5b600061323b84828501613202565b91505092915050565b7f596f7520617265206e6f74204e46542773206f776e6572000000000000000000600082015250565b600061327a601783612749565b915061328582613244565b602082019050919050565b600060208201905081810360008301526132a98161326d565b9050919050565b600060c0820190506132c560008301896123d5565b6132d260208301886125ca565b6132df60408301876123d5565b6132ec60608301866125ca565b6132f960808301856125ca565b61330660a08301846123d5565b979650505050505050565b7f4f776e61626c653a206e6577206f776e657220697320746865207a65726f206160008201527f6464726573730000000000000000000000000000000000000000000000000000602082015250565b600061336d602683612749565b915061337882613311565b604082019050919050565b6000602082019050818103600083015261339c81613360565b905091905056fea2646970667358221220b377f27329f220d7b35180a32f2483368e567a4fd3ba7099200c0c6601235ce164736f6c634300080d0033",
  "immutableReferences": {},
  "source": "// SPDX-License-Identifier: MIT\r\n\r\npragma solidity ^0.8.13;\r\n\r\nimport \"./ILinkWallet.sol\";\r\nimport \"@openzeppelin/contracts/utils/Counters.sol\";\r\nimport \"@openzeppelin/contracts/token/ERC20/IERC20.sol\";\r\nimport \"@openzeppelin/contracts/token/ERC721/IERC721.sol\";\r\nimport \"@openzeppelin/contracts/security/ReentrancyGuard.sol\";\r\nimport \"@openzeppelin/contracts/access/Ownable.sol\";\r\n\r\ncontract Marketplace is ReentrancyGuard, Ownable {\r\n    using Counters for Counters.Counter;\r\n    Counters.Counter private _marketItemIds;\r\n    Counters.Counter private _nftSold;\r\n    IERC20 public deathKingdomCoin;\r\n    ILinkWallet public linkWallet;\r\n    uint256 public platformFee = 25;\r\n    uint256 public deno = 1000;\r\n\r\n    mapping(uint256 => NFTMarketItem) private marketItems;\r\n\r\n    constructor(address _deathKingdomCoinContract, address _linkWalletAddress) {\r\n        deathKingdomCoin = IERC20(_deathKingdomCoinContract);\r\n        linkWallet = ILinkWallet(_linkWalletAddress);\r\n    }\r\n\r\n    struct NFTMarketItem {\r\n        uint256 marketItemId;\r\n        uint256 tokenId;\r\n        uint256 price;\r\n        address payable seller;\r\n        address payable buyer;\r\n        address nftContract;\r\n        bool isSelling;\r\n    }\r\n\r\n    event NFTListed(\r\n        uint256 marketItemId,\r\n        address nftContract,\r\n        uint256 tokenId,\r\n        address seller,\r\n        address buyer,\r\n        uint256 price\r\n    );\r\n\r\n    event NFTSaleCanceled(\r\n        uint256 marketItemId,\r\n        address nftContract,\r\n        uint256 tokenId,\r\n        address seller,\r\n        address buyer,\r\n        uint256 price\r\n    );\r\n\r\n    event NFTSold(\r\n        uint256 marketItemId,\r\n        address nftContract,\r\n        uint256 tokenId,\r\n        address seller,\r\n        address buyer,\r\n        uint256 price\r\n    );\r\n\r\n    modifier marketplaceItemExist(uint256 _marketplaceItemId) {\r\n        require(_marketplaceItemId > 0, \"MarketItemId should be > 0\");\r\n        require(\r\n            _marketplaceItemId <= _marketItemIds.current(),\r\n            \"MarketItemId should be exist\"\r\n        );\r\n        _;\r\n    }\r\n\r\n    function listNft(\r\n        address _nftContract,\r\n        uint256 _tokenId,\r\n        uint256 _price\r\n    ) public {\r\n        require(\r\n            bytes(linkWallet.getUserIdByWalletAddress(msg.sender)).length > 0,\r\n            \"Wallet Address must be linked with user account before listNft\"\r\n        );\r\n        require(_price > 0, \"Price must > 0\");\r\n        require(\r\n            IERC721(_nftContract).ownerOf(_tokenId) == msg.sender,\r\n            \"You are not NFT's owner\"\r\n        );\r\n        _marketItemIds.increment();\r\n        uint256 marketItemId = _marketItemIds.current();\r\n\r\n        marketItems[marketItemId] = NFTMarketItem(\r\n            marketItemId,\r\n            _tokenId,\r\n            _price,\r\n            payable(msg.sender),\r\n            payable(address(0)),\r\n            _nftContract,\r\n            true\r\n        );\r\n        IERC721(_nftContract).transferFrom(msg.sender, address(this), _tokenId);\r\n        emit NFTListed(\r\n            marketItemId,\r\n            _nftContract,\r\n            _tokenId,\r\n            msg.sender,\r\n            address(this),\r\n            _price\r\n        );\r\n    }\r\n\r\n    function cancelSellNft(uint256 _marketItemId)\r\n        public\r\n        marketplaceItemExist(_marketItemId)\r\n    {\r\n        NFTMarketItem storage nftMarketItem = marketItems[_marketItemId];\r\n        require(msg.sender == nftMarketItem.seller, \"You are not NFT's Owner\");\r\n        require(nftMarketItem.isSelling == true, \"NFT is not Selling\");\r\n        nftMarketItem.isSelling = false;\r\n        IERC721(nftMarketItem.nftContract).transferFrom(\r\n            address(this),\r\n            msg.sender,\r\n            nftMarketItem.tokenId\r\n        );\r\n        _nftSold.increment();\r\n        emit NFTSaleCanceled(\r\n            nftMarketItem.marketItemId,\r\n            nftMarketItem.nftContract,\r\n            nftMarketItem.tokenId,\r\n            nftMarketItem.seller,\r\n            nftMarketItem.buyer,\r\n            nftMarketItem.price\r\n        );\r\n    }\r\n\r\n    function buyNft(uint256 _marketItemId)\r\n        public\r\n        payable\r\n        marketplaceItemExist(_marketItemId)\r\n    {\r\n        require(\r\n            bytes(linkWallet.getUserIdByWalletAddress(msg.sender)).length > 0,\r\n            \"Wallet Address must be linked with user account before buyNft\"\r\n        );\r\n        NFTMarketItem storage nftMarketItem = marketItems[_marketItemId];\r\n        require(nftMarketItem.isSelling == true, \"NFT is not Selling\");\r\n        require(\r\n            nftMarketItem.seller != msg.sender,\r\n            \"You can not buy your own NFT\"\r\n        );\r\n\r\n        uint256 price = nftMarketItem.price;\r\n        uint256 marketFee = (price * platformFee) / deno;\r\n\r\n        uint256 senderBalance = deathKingdomCoin.balanceOf(msg.sender);\r\n        require(\r\n            senderBalance >= price,\r\n            \"You do not have enough DKC to buy this NFT\"\r\n        );\r\n\r\n        uint256 allowance = deathKingdomCoin.allowance(\r\n            msg.sender,\r\n            address(this)\r\n        );\r\n        require(\r\n            allowance >= price,\r\n            \"You do not approve enough DKC to buy this NFT\"\r\n        );\r\n\r\n        deathKingdomCoin.transferFrom(msg.sender, address(this), price);\r\n\r\n        deathKingdomCoin.transfer(nftMarketItem.seller, price - marketFee);\r\n\r\n        deathKingdomCoin.transfer(\r\n            owner(),\r\n            deathKingdomCoin.balanceOf(address(this))\r\n        );\r\n\r\n        nftMarketItem.buyer = payable(msg.sender);\r\n        _nftSold.increment();\r\n\r\n        IERC721(nftMarketItem.nftContract).transferFrom(\r\n            address(this),\r\n            msg.sender,\r\n            nftMarketItem.tokenId\r\n        );\r\n\r\n        nftMarketItem.isSelling = false;\r\n        nftMarketItem.buyer = payable(msg.sender);\r\n\r\n        emit NFTSold(\r\n            nftMarketItem.marketItemId,\r\n            nftMarketItem.nftContract,\r\n            nftMarketItem.tokenId,\r\n            nftMarketItem.seller,\r\n            nftMarketItem.buyer,\r\n            price\r\n        );\r\n    }\r\n\r\n    function getMarketItem(uint256 _marketItemId)\r\n        public\r\n        view\r\n        marketplaceItemExist(_marketItemId)\r\n        returns (NFTMarketItem memory)\r\n    {\r\n        return marketItems[_marketItemId];\r\n    }\r\n\r\n    function getListingNfts() public view returns (NFTMarketItem[] memory) {\r\n        uint256 nftCount = _marketItemIds.current();\r\n        uint256 unsoldNftsCount = nftCount - _nftSold.current();\r\n\r\n        NFTMarketItem[] memory nfts = new NFTMarketItem[](unsoldNftsCount);\r\n        uint256 nftsIndex = 0;\r\n        for (uint256 i = 0; i < nftCount; i++) {\r\n            if (marketItems[i + 1].isSelling) {\r\n                nfts[nftsIndex] = marketItems[i + 1];\r\n                nftsIndex++;\r\n            }\r\n        }\r\n        return nfts;\r\n    }\r\n\r\n    function getMyListingNfts() public view returns (NFTMarketItem[] memory) {\r\n        uint256 nftCount = _marketItemIds.current();\r\n        uint256 myListingNftCount = 0;\r\n        for (uint256 i = 0; i < nftCount; i++) {\r\n            if (\r\n                marketItems[i + 1].seller == msg.sender &&\r\n                marketItems[i + 1].isSelling\r\n            ) {\r\n                myListingNftCount++;\r\n            }\r\n        }\r\n\r\n        NFTMarketItem[] memory nfts = new NFTMarketItem[](myListingNftCount);\r\n        uint256 nftsIndex = 0;\r\n        for (uint256 i = 0; i < nftCount; i++) {\r\n            if (\r\n                marketItems[i + 1].seller == msg.sender &&\r\n                marketItems[i + 1].isSelling\r\n            ) {\r\n                nfts[nftsIndex] = marketItems[i + 1];\r\n                nftsIndex++;\r\n            }\r\n        }\r\n        return nfts;\r\n    }\r\n\r\n    function getNftSellHistory(uint256 _tokenId)\r\n        public\r\n        view\r\n        returns (NFTMarketItem[] memory)\r\n    {\r\n        uint256 nftCount = _marketItemIds.current();\r\n        uint256 nftSellHistoryCount = 0;\r\n        for (uint256 i = 0; i < nftCount; i++) {\r\n            if (\r\n                marketItems[i + 1].tokenId == _tokenId &&\r\n                !marketItems[i + 1].isSelling\r\n            ) {\r\n                nftSellHistoryCount++;\r\n            }\r\n        }\r\n\r\n        NFTMarketItem[] memory nfts = new NFTMarketItem[](nftSellHistoryCount);\r\n        uint256 nftsIndex = 0;\r\n        for (uint256 i = 0; i < nftCount; i++) {\r\n            if (\r\n                marketItems[i + 1].tokenId == _tokenId &&\r\n                !marketItems[i + 1].isSelling\r\n            ) {\r\n                nfts[nftsIndex] = marketItems[i + 1];\r\n                nftsIndex++;\r\n            }\r\n        }\r\n        return nfts;\r\n    }\r\n}\r\n",
  "sourcePath": "D:\\code\\TheDeadKingdom\\Contract\\contracts\\ethereum\\Marketplace.sol",
  "compiler": {
    "name": "solc",
    "version": "0.8.13+commit.abaa5c0e.Emscripten.clang"
  },
  "schemaVersion": "3.4.7",
  "updatedAt": "2022-08-28T05:31:29.559Z",
  "networkType": "ethereum",
  "devdoc": {
    "kind": "dev",
    "methods": {
      "owner()": {
        "details": "Returns the address of the current owner."
      },
      "renounceOwnership()": {
        "details": "Leaves the contract without owner. It will not be possible to call `onlyOwner` functions anymore. Can only be called by the current owner. NOTE: Renouncing ownership will leave the contract without an owner, thereby removing any functionality that is only available to the owner."
      },
      "transferOwnership(address)": {
        "details": "Transfers ownership of the contract to a new account (`newOwner`). Can only be called by the current owner."
      }
    },
    "version": 1
  },
  "userdoc": {
    "kind": "user",
    "methods": {},
    "version": 1
  }
}