{
  "contractName": "TankNFT",
  "abi": [
    {
      "inputs": [
        {
          "internalType": "address",
          "name": "_marketplaceContract",
          "type": "address"
        },
        {
          "internalType": "address",
          "name": "_deathKingdomCoinContract",
          "type": "address"
        },
        {
          "internalType": "address",
          "name": "_linkWalletAddress",
          "type": "address"
        }
      ],
      "stateMutability": "nonpayable",
      "type": "constructor"
    },
    {
      "anonymous": false,
      "inputs": [
        {
          "indexed": true,
          "internalType": "address",
          "name": "owner",
          "type": "address"
        },
        {
          "indexed": true,
          "internalType": "address",
          "name": "approved",
          "type": "address"
        },
        {
          "indexed": true,
          "internalType": "uint256",
          "name": "tokenId",
          "type": "uint256"
        }
      ],
      "name": "Approval",
      "type": "event"
    },
    {
      "anonymous": false,
      "inputs": [
        {
          "indexed": true,
          "internalType": "address",
          "name": "owner",
          "type": "address"
        },
        {
          "indexed": true,
          "internalType": "address",
          "name": "operator",
          "type": "address"
        },
        {
          "indexed": false,
          "internalType": "bool",
          "name": "approved",
          "type": "bool"
        }
      ],
      "name": "ApprovalForAll",
      "type": "event"
    },
    {
      "anonymous": false,
      "inputs": [
        {
          "indexed": false,
          "internalType": "uint256[]",
          "name": "listTokenId",
          "type": "uint256[]"
        },
        {
          "indexed": false,
          "internalType": "address",
          "name": "tokenOwner",
          "type": "address"
        },
        {
          "indexed": false,
          "internalType": "string",
          "name": "boxId",
          "type": "string"
        }
      ],
      "name": "BoxSold",
      "type": "event"
    },
    {
      "anonymous": false,
      "inputs": [
        {
          "indexed": true,
          "internalType": "address",
          "name": "previousOwner",
          "type": "address"
        },
        {
          "indexed": true,
          "internalType": "address",
          "name": "newOwner",
          "type": "address"
        }
      ],
      "name": "OwnershipTransferred",
      "type": "event"
    },
    {
      "anonymous": false,
      "inputs": [
        {
          "indexed": true,
          "internalType": "address",
          "name": "from",
          "type": "address"
        },
        {
          "indexed": true,
          "internalType": "address",
          "name": "to",
          "type": "address"
        },
        {
          "indexed": true,
          "internalType": "uint256",
          "name": "tokenId",
          "type": "uint256"
        }
      ],
      "name": "Transfer",
      "type": "event"
    },
    {
      "inputs": [
        {
          "internalType": "address",
          "name": "to",
          "type": "address"
        },
        {
          "internalType": "uint256",
          "name": "tokenId",
          "type": "uint256"
        }
      ],
      "name": "approve",
      "outputs": [],
      "stateMutability": "nonpayable",
      "type": "function"
    },
    {
      "inputs": [
        {
          "internalType": "address",
          "name": "owner",
          "type": "address"
        }
      ],
      "name": "balanceOf",
      "outputs": [
        {
          "internalType": "uint256",
          "name": "",
          "type": "uint256"
        }
      ],
      "stateMutability": "view",
      "type": "function",
      "constant": true
    },
    {
      "inputs": [],
      "name": "baseURI",
      "outputs": [
        {
          "internalType": "string",
          "name": "",
          "type": "string"
        }
      ],
      "stateMutability": "view",
      "type": "function",
      "constant": true
    },
    {
      "inputs": [],
      "name": "deathKingdomCoin",
      "outputs": [
        {
          "internalType": "contract IERC20",
          "name": "",
          "type": "address"
        }
      ],
      "stateMutability": "view",
      "type": "function",
      "constant": true
    },
    {
      "inputs": [
        {
          "internalType": "uint256",
          "name": "tokenId",
          "type": "uint256"
        }
      ],
      "name": "getApproved",
      "outputs": [
        {
          "internalType": "address",
          "name": "",
          "type": "address"
        }
      ],
      "stateMutability": "view",
      "type": "function",
      "constant": true
    },
    {
      "inputs": [
        {
          "internalType": "address",
          "name": "owner",
          "type": "address"
        },
        {
          "internalType": "address",
          "name": "operator",
          "type": "address"
        }
      ],
      "name": "isApprovedForAll",
      "outputs": [
        {
          "internalType": "bool",
          "name": "",
          "type": "bool"
        }
      ],
      "stateMutability": "view",
      "type": "function",
      "constant": true
    },
    {
      "inputs": [],
      "name": "linkWallet",
      "outputs": [
        {
          "internalType": "contract ILinkWallet",
          "name": "",
          "type": "address"
        }
      ],
      "stateMutability": "view",
      "type": "function",
      "constant": true
    },
    {
      "inputs": [],
      "name": "marketAddress",
      "outputs": [
        {
          "internalType": "address",
          "name": "",
          "type": "address"
        }
      ],
      "stateMutability": "view",
      "type": "function",
      "constant": true
    },
    {
      "inputs": [],
      "name": "name",
      "outputs": [
        {
          "internalType": "string",
          "name": "",
          "type": "string"
        }
      ],
      "stateMutability": "view",
      "type": "function",
      "constant": true
    },
    {
      "inputs": [],
      "name": "owner",
      "outputs": [
        {
          "internalType": "address",
          "name": "",
          "type": "address"
        }
      ],
      "stateMutability": "view",
      "type": "function",
      "constant": true
    },
    {
      "inputs": [
        {
          "internalType": "uint256",
          "name": "tokenId",
          "type": "uint256"
        }
      ],
      "name": "ownerOf",
      "outputs": [
        {
          "internalType": "address",
          "name": "",
          "type": "address"
        }
      ],
      "stateMutability": "view",
      "type": "function",
      "constant": true
    },
    {
      "inputs": [],
      "name": "renounceOwnership",
      "outputs": [],
      "stateMutability": "nonpayable",
      "type": "function"
    },
    {
      "inputs": [
        {
          "internalType": "address",
          "name": "from",
          "type": "address"
        },
        {
          "internalType": "address",
          "name": "to",
          "type": "address"
        },
        {
          "internalType": "uint256",
          "name": "tokenId",
          "type": "uint256"
        }
      ],
      "name": "safeTransferFrom",
      "outputs": [],
      "stateMutability": "nonpayable",
      "type": "function"
    },
    {
      "inputs": [
        {
          "internalType": "address",
          "name": "from",
          "type": "address"
        },
        {
          "internalType": "address",
          "name": "to",
          "type": "address"
        },
        {
          "internalType": "uint256",
          "name": "tokenId",
          "type": "uint256"
        },
        {
          "internalType": "bytes",
          "name": "_data",
          "type": "bytes"
        }
      ],
      "name": "safeTransferFrom",
      "outputs": [],
      "stateMutability": "nonpayable",
      "type": "function"
    },
    {
      "inputs": [
        {
          "internalType": "address",
          "name": "operator",
          "type": "address"
        },
        {
          "internalType": "bool",
          "name": "approved",
          "type": "bool"
        }
      ],
      "name": "setApprovalForAll",
      "outputs": [],
      "stateMutability": "nonpayable",
      "type": "function"
    },
    {
      "inputs": [
        {
          "internalType": "bytes4",
          "name": "interfaceId",
          "type": "bytes4"
        }
      ],
      "name": "supportsInterface",
      "outputs": [
        {
          "internalType": "bool",
          "name": "",
          "type": "bool"
        }
      ],
      "stateMutability": "view",
      "type": "function",
      "constant": true
    },
    {
      "inputs": [],
      "name": "symbol",
      "outputs": [
        {
          "internalType": "string",
          "name": "",
          "type": "string"
        }
      ],
      "stateMutability": "view",
      "type": "function",
      "constant": true
    },
    {
      "inputs": [
        {
          "internalType": "uint256",
          "name": "tokenId",
          "type": "uint256"
        }
      ],
      "name": "tokenURI",
      "outputs": [
        {
          "internalType": "string",
          "name": "",
          "type": "string"
        }
      ],
      "stateMutability": "view",
      "type": "function",
      "constant": true
    },
    {
      "inputs": [
        {
          "internalType": "address",
          "name": "from",
          "type": "address"
        },
        {
          "internalType": "address",
          "name": "to",
          "type": "address"
        },
        {
          "internalType": "uint256",
          "name": "tokenId",
          "type": "uint256"
        }
      ],
      "name": "transferFrom",
      "outputs": [],
      "stateMutability": "nonpayable",
      "type": "function"
    },
    {
      "inputs": [
        {
          "internalType": "address",
          "name": "newOwner",
          "type": "address"
        }
      ],
      "name": "transferOwnership",
      "outputs": [],
      "stateMutability": "nonpayable",
      "type": "function"
    },
    {
      "inputs": [
        {
          "internalType": "string",
          "name": "_baseURI",
          "type": "string"
        }
      ],
      "name": "setBaseURI",
      "outputs": [],
      "stateMutability": "nonpayable",
      "type": "function"
    },
    {
      "inputs": [
        {
          "internalType": "string",
          "name": "_boxId",
          "type": "string"
        },
        {
          "internalType": "uint256",
          "name": "_price",
          "type": "uint256"
        }
      ],
      "name": "setBoxPrice",
      "outputs": [],
      "stateMutability": "nonpayable",
      "type": "function"
    },
    {
      "inputs": [
        {
          "internalType": "string",
          "name": "_boxId",
          "type": "string"
        }
      ],
      "name": "getBoxPrice",
      "outputs": [
        {
          "internalType": "uint256",
          "name": "",
          "type": "uint256"
        }
      ],
      "stateMutability": "view",
      "type": "function",
      "constant": true
    },
    {
      "inputs": [
        {
          "internalType": "string",
          "name": "_boxId",
          "type": "string"
        },
        {
          "internalType": "uint256",
          "name": "_amount",
          "type": "uint256"
        }
      ],
      "name": "buyBoxes",
      "outputs": [
        {
          "internalType": "uint256[]",
          "name": "",
          "type": "uint256[]"
        }
      ],
      "stateMutability": "nonpayable",
      "type": "function"
    },
    {
      "inputs": [
        {
          "internalType": "address",
          "name": "_ownerAddress",
          "type": "address"
        }
      ],
      "name": "getMyNfts",
      "outputs": [
        {
          "internalType": "uint256[]",
          "name": "",
          "type": "uint256[]"
        }
      ],
      "stateMutability": "view",
      "type": "function",
      "constant": true
    }
  ],
  "bytecode": "0x60806040523480156200001157600080fd5b50604051620043a5380380620043a58339818101604052810190620000379190620003ab565b6040518060400160405280600c81526020017f54616e6b4e4654546f6b656e00000000000000000000000000000000000000008152506040518060400160405280600381526020017f444b5400000000000000000000000000000000000000000000000000000000008152508160009080519060200190620000bb92919062000291565b508060019080519060200190620000d492919062000291565b505050620000f7620000eb620001c360201b60201c565b620001cb60201b60201c565b82600860006101000a81548173ffffffffffffffffffffffffffffffffffffffff021916908373ffffffffffffffffffffffffffffffffffffffff16021790555081600960006101000a81548173ffffffffffffffffffffffffffffffffffffffff021916908373ffffffffffffffffffffffffffffffffffffffff16021790555080600a60006101000a81548173ffffffffffffffffffffffffffffffffffffffff021916908373ffffffffffffffffffffffffffffffffffffffff1602179055505050506200046b565b600033905090565b6000600660009054906101000a900473ffffffffffffffffffffffffffffffffffffffff16905081600660006101000a81548173ffffffffffffffffffffffffffffffffffffffff021916908373ffffffffffffffffffffffffffffffffffffffff1602179055508173ffffffffffffffffffffffffffffffffffffffff168173ffffffffffffffffffffffffffffffffffffffff167f8be0079c531659141344cd1fd0a4f28419497f9722a3daafe3b4186f6b6457e060405160405180910390a35050565b8280546200029f9062000436565b90600052602060002090601f016020900481019282620002c357600085556200030f565b82601f10620002de57805160ff19168380011785556200030f565b828001600101855582156200030f579182015b828111156200030e578251825591602001919060010190620002f1565b5b5090506200031e919062000322565b5090565b5b808211156200033d57600081600090555060010162000323565b5090565b600080fd5b600073ffffffffffffffffffffffffffffffffffffffff82169050919050565b6000620003738262000346565b9050919050565b620003858162000366565b81146200039157600080fd5b50565b600081519050620003a5816200037a565b92915050565b600080600060608486031215620003c757620003c662000341565b5b6000620003d78682870162000394565b9350506020620003ea8682870162000394565b9250506040620003fd8682870162000394565b9150509250925092565b7f4e487b7100000000000000000000000000000000000000000000000000000000600052602260045260246000fd5b600060028204905060018216806200044f57607f821691505b60208210810362000465576200046462000407565b5b50919050565b613f2a806200047b6000396000f3fe608060405234801561001057600080fd5b50600436106101735760003560e01c80636c0360eb116100de578063a22cb46511610097578063c87b56dd11610071578063c87b56dd14610438578063e985e9c514610468578063f2fde38b14610498578063f6c1b77a146104b457610173565b8063a22cb465146103d0578063a7cbba35146103ec578063b88d4fde1461041c57610173565b80636c0360eb1461031e57806370a082311461033c578063715018a61461036c5780638da5cb5b14610376578063956236411461039457806395d89b41146103b257610173565b806323b872dd1161013057806323b872dd1461024e57806329c0e7c91461026a57806342842e0e1461028657806355f804b3146102a2578063574205e9146102be5780636352211e146102ee57610173565b806301ffc9a71461017857806306fdde03146101a8578063081812fc146101c6578063095ea7b3146101f657806314d889cf146102125780631a4b1a8414610230575b600080fd5b610192600480360381019061018d9190612588565b6104e4565b60405161019f91906125d0565b60405180910390f35b6101b06105c6565b6040516101bd9190612684565b60405180910390f35b6101e060048036038101906101db91906126dc565b610658565b6040516101ed919061274a565b60405180910390f35b610210600480360381019061020b9190612791565b6106dd565b005b61021a6107f4565b6040516102279190612830565b60405180910390f35b61023861081a565b604051610245919061286c565b60405180910390f35b61026860048036038101906102639190612887565b610840565b005b610284600480360381019061027f9190612a0f565b6108a0565b005b6102a0600480360381019061029b9190612887565b610987565b005b6102bc60048036038101906102b79190612a6b565b6109a7565b005b6102d860048036038101906102d39190612a0f565b610a3d565b6040516102e59190612b72565b60405180910390f35b610308600480360381019061030391906126dc565b610f86565b604051610315919061274a565b60405180910390f35b610326611037565b6040516103339190612684565b60405180910390f35b61035660048036038101906103519190612b94565b6110c5565b6040516103639190612bd0565b60405180910390f35b61037461117c565b005b61037e611204565b60405161038b919061274a565b60405180910390f35b61039c61122e565b6040516103a9919061274a565b60405180910390f35b6103ba611254565b6040516103c79190612684565b60405180910390f35b6103ea60048036038101906103e59190612c17565b6112e6565b005b61040660048036038101906104019190612a6b565b6112fc565b6040516104139190612bd0565b60405180910390f35b61043660048036038101906104319190612cf8565b611367565b005b610452600480360381019061044d91906126dc565b6113c9565b60405161045f9190612684565b60405180910390f35b610482600480360381019061047d9190612d7b565b611470565b60405161048f91906125d0565b60405180910390f35b6104b260048036038101906104ad9190612b94565b611504565b005b6104ce60048036038101906104c99190612b94565b6115fb565b6040516104db9190612b72565b60405180910390f35b60007f80ac58cd000000000000000000000000000000000000000000000000000000007bffffffffffffffffffffffffffffffffffffffffffffffffffffffff1916827bffffffffffffffffffffffffffffffffffffffffffffffffffffffff191614806105af57507f5b5e139f000000000000000000000000000000000000000000000000000000007bffffffffffffffffffffffffffffffffffffffffffffffffffffffff1916827bffffffffffffffffffffffffffffffffffffffffffffffffffffffff1916145b806105bf57506105be8261170d565b5b9050919050565b6060600080546105d590612dea565b80601f016020809104026020016040519081016040528092919081815260200182805461060190612dea565b801561064e5780601f106106235761010080835404028352916020019161064e565b820191906000526020600020905b81548152906001019060200180831161063157829003601f168201915b5050505050905090565b600061066382611777565b6106a2576040517f08c379a000000000000000000000000000000000000000000000000000000000815260040161069990612e8d565b60405180910390fd5b6004600083815260200190815260200160002060009054906101000a900473ffffffffffffffffffffffffffffffffffffffff169050919050565b60006106e882610f86565b90508073ffffffffffffffffffffffffffffffffffffffff168373ffffffffffffffffffffffffffffffffffffffff1603610758576040517f08c379a000000000000000000000000000000000000000000000000000000000815260040161074f90612f1f565b60405180910390fd5b8073ffffffffffffffffffffffffffffffffffffffff166107776117e3565b73ffffffffffffffffffffffffffffffffffffffff1614806107a657506107a5816107a06117e3565b611470565b5b6107e5576040517f08c379a00000000000000000000000000000000000000000000000000000000081526004016107dc90612fb1565b60405180910390fd5b6107ef83836117eb565b505050565b600960009054906101000a900473ffffffffffffffffffffffffffffffffffffffff1681565b600a60009054906101000a900473ffffffffffffffffffffffffffffffffffffffff1681565b61085161084b6117e3565b826118a4565b610890576040517f08c379a000000000000000000000000000000000000000000000000000000000815260040161088790613043565b60405180910390fd5b61089b838383611982565b505050565b6108a86117e3565b73ffffffffffffffffffffffffffffffffffffffff166108c6611204565b73ffffffffffffffffffffffffffffffffffffffff161461091c576040517f08c379a0000000000000000000000000000000000000000000000000000000008152600401610913906130af565b60405180910390fd5b6000825111610960576040517f08c379a00000000000000000000000000000000000000000000000000000000081526004016109579061311b565b60405180910390fd5b80600b836040516109719190613177565b9081526020016040518091039020819055505050565b6109a283838360405180602001604052806000815250611367565b505050565b6109af6117e3565b73ffffffffffffffffffffffffffffffffffffffff166109cd611204565b73ffffffffffffffffffffffffffffffffffffffff1614610a23576040517f08c379a0000000000000000000000000000000000000000000000000000000008152600401610a1a906130af565b60405180910390fd5b80600c9080519060200190610a39929190612479565b5050565b60606000600a60009054906101000a900473ffffffffffffffffffffffffffffffffffffffff1673ffffffffffffffffffffffffffffffffffffffff166303fb0114336040518263ffffffff1660e01b8152600401610a9c919061274a565b600060405180830381865afa158015610ab9573d6000803e3d6000fd5b505050506040513d6000823e3d601f19601f82011682018060405250810190610ae291906131fe565b5111610b23576040517f08c379a0000000000000000000000000000000000000000000000000000000008152600401610b1a906132b9565b60405180910390fd5b6000835111610b67576040517f08c379a0000000000000000000000000000000000000000000000000000000008152600401610b5e9061311b565b60405180910390fd5b6000600b84604051610b799190613177565b90815260200160405180910390205411610bc8576040517f08c379a0000000000000000000000000000000000000000000000000000000008152600401610bbf90613325565b60405180910390fd5b60008211610c0b576040517f08c379a0000000000000000000000000000000000000000000000000000000008152600401610c0290613391565b60405180910390fd5b6000600b84604051610c1d9190613177565b90815260200160405180910390205483610c3791906133e0565b90506000600960009054906101000a900473ffffffffffffffffffffffffffffffffffffffff1673ffffffffffffffffffffffffffffffffffffffff166370a08231336040518263ffffffff1660e01b8152600401610c96919061274a565b602060405180830381865afa158015610cb3573d6000803e3d6000fd5b505050506040513d601f19601f82011682018060405250810190610cd7919061344f565b905081811015610d1c576040517f08c379a0000000000000000000000000000000000000000000000000000000008152600401610d13906134ee565b60405180910390fd5b6000600960009054906101000a900473ffffffffffffffffffffffffffffffffffffffff1673ffffffffffffffffffffffffffffffffffffffff1663dd62ed3e33306040518363ffffffff1660e01b8152600401610d7b92919061350e565b602060405180830381865afa158015610d98573d6000803e3d6000fd5b505050506040513d601f19601f82011682018060405250810190610dbc919061344f565b905082811015610e01576040517f08c379a0000000000000000000000000000000000000000000000000000000008152600401610df8906135a9565b60405180910390fd5b600960009054906101000a900473ffffffffffffffffffffffffffffffffffffffff1673ffffffffffffffffffffffffffffffffffffffff166323b872dd33610e48611204565b866040518463ffffffff1660e01b8152600401610e67939291906135c9565b6020604051808303816000875af1158015610e86573d6000803e3d6000fd5b505050506040513d601f19601f82011682018060405250810190610eaa9190613615565b5060008567ffffffffffffffff811115610ec757610ec66128e4565b5b604051908082528060200260200182016040528015610ef55781602001602082028036833780820191505090505b50905060005b86811015610f3d57610f0b611be8565b828281518110610f1e57610f1d613642565b5b6020026020010181815250508080610f3590613671565b915050610efb565b507f05f50fa4fe3e85051c267ee84c105ed713353067b037fbfa428e0651f625cc75813389604051610f71939291906136b9565b60405180910390a18094505050505092915050565b6000806002600084815260200190815260200160002060009054906101000a900473ffffffffffffffffffffffffffffffffffffffff169050600073ffffffffffffffffffffffffffffffffffffffff168173ffffffffffffffffffffffffffffffffffffffff160361102e576040517f08c379a000000000000000000000000000000000000000000000000000000000815260040161102590613770565b60405180910390fd5b80915050919050565b600c805461104490612dea565b80601f016020809104026020016040519081016040528092919081815260200182805461107090612dea565b80156110bd5780601f10611092576101008083540402835291602001916110bd565b820191906000526020600020905b8154815290600101906020018083116110a057829003601f168201915b505050505081565b60008073ffffffffffffffffffffffffffffffffffffffff168273ffffffffffffffffffffffffffffffffffffffff1603611135576040517f08c379a000000000000000000000000000000000000000000000000000000000815260040161112c90613802565b60405180910390fd5b600360008373ffffffffffffffffffffffffffffffffffffffff1673ffffffffffffffffffffffffffffffffffffffff168152602001908152602001600020549050919050565b6111846117e3565b73ffffffffffffffffffffffffffffffffffffffff166111a2611204565b73ffffffffffffffffffffffffffffffffffffffff16146111f8576040517f08c379a00000000000000000000000000000000000000000000000000000000081526004016111ef906130af565b60405180910390fd5b6112026000611c48565b565b6000600660009054906101000a900473ffffffffffffffffffffffffffffffffffffffff16905090565b600860009054906101000a900473ffffffffffffffffffffffffffffffffffffffff1681565b60606001805461126390612dea565b80601f016020809104026020016040519081016040528092919081815260200182805461128f90612dea565b80156112dc5780601f106112b1576101008083540402835291602001916112dc565b820191906000526020600020905b8154815290600101906020018083116112bf57829003601f168201915b5050505050905090565b6112f86112f16117e3565b8383611d0e565b5050565b600080825111611341576040517f08c379a00000000000000000000000000000000000000000000000000000000081526004016113389061311b565b60405180910390fd5b600b826040516113519190613177565b9081526020016040518091039020549050919050565b6113786113726117e3565b836118a4565b6113b7576040517f08c379a00000000000000000000000000000000000000000000000000000000081526004016113ae90613043565b60405180910390fd5b6113c384848484611e7a565b50505050565b60606113d482611777565b611413576040517f08c379a000000000000000000000000000000000000000000000000000000000815260040161140a90613894565b60405180910390fd5b600061141d611ed6565b9050600081511161143d5760405180602001604052806000815250611468565b8061144784611f68565b6040516020016114589291906138b4565b6040516020818303038152906040525b915050919050565b6000600560008473ffffffffffffffffffffffffffffffffffffffff1673ffffffffffffffffffffffffffffffffffffffff16815260200190815260200160002060008373ffffffffffffffffffffffffffffffffffffffff1673ffffffffffffffffffffffffffffffffffffffff16815260200190815260200160002060009054906101000a900460ff16905092915050565b61150c6117e3565b73ffffffffffffffffffffffffffffffffffffffff1661152a611204565b73ffffffffffffffffffffffffffffffffffffffff1614611580576040517f08c379a0000000000000000000000000000000000000000000000000000000008152600401611577906130af565b60405180910390fd5b600073ffffffffffffffffffffffffffffffffffffffff168173ffffffffffffffffffffffffffffffffffffffff16036115ef576040517f08c379a00000000000000000000000000000000000000000000000000000000081526004016115e69061394a565b60405180910390fd5b6115f881611c48565b50565b6060600061160960076120c8565b90506000611616846110c5565b67ffffffffffffffff81111561162f5761162e6128e4565b5b60405190808252806020026020018201604052801561165d5781602001602082028036833780820191505090505b5090506000805b83811015611701578573ffffffffffffffffffffffffffffffffffffffff16611698600183611693919061396a565b610f86565b73ffffffffffffffffffffffffffffffffffffffff16036116ee576001816116c0919061396a565b8383815181106116d3576116d2613642565b5b60200260200101818152505081806116ea90613671565b9250505b80806116f990613671565b915050611664565b50819350505050919050565b60007f01ffc9a7000000000000000000000000000000000000000000000000000000007bffffffffffffffffffffffffffffffffffffffffffffffffffffffff1916827bffffffffffffffffffffffffffffffffffffffffffffffffffffffff1916149050919050565b60008073ffffffffffffffffffffffffffffffffffffffff166002600084815260200190815260200160002060009054906101000a900473ffffffffffffffffffffffffffffffffffffffff1673ffffffffffffffffffffffffffffffffffffffff1614159050919050565b600033905090565b816004600083815260200190815260200160002060006101000a81548173ffffffffffffffffffffffffffffffffffffffff021916908373ffffffffffffffffffffffffffffffffffffffff160217905550808273ffffffffffffffffffffffffffffffffffffffff1661185e83610f86565b73ffffffffffffffffffffffffffffffffffffffff167f8c5be1e5ebec7d5bd14f71427d1e84f3dd0314c0f7b2291e5b200ac8c7c3b92560405160405180910390a45050565b60006118af82611777565b6118ee576040517f08c379a00000000000000000000000000000000000000000000000000000000081526004016118e590613a32565b60405180910390fd5b60006118f983610f86565b90508073ffffffffffffffffffffffffffffffffffffffff168473ffffffffffffffffffffffffffffffffffffffff16148061193b575061193a8185611470565b5b8061197957508373ffffffffffffffffffffffffffffffffffffffff1661196184610658565b73ffffffffffffffffffffffffffffffffffffffff16145b91505092915050565b8273ffffffffffffffffffffffffffffffffffffffff166119a282610f86565b73ffffffffffffffffffffffffffffffffffffffff16146119f8576040517f08c379a00000000000000000000000000000000000000000000000000000000081526004016119ef90613ac4565b60405180910390fd5b600073ffffffffffffffffffffffffffffffffffffffff168273ffffffffffffffffffffffffffffffffffffffff1603611a67576040517f08c379a0000000000000000000000000000000000000000000000000000000008152600401611a5e90613b56565b60405180910390fd5b611a728383836120d6565b611a7d6000826117eb565b6001600360008573ffffffffffffffffffffffffffffffffffffffff1673ffffffffffffffffffffffffffffffffffffffff1681526020019081526020016000206000828254611acd9190613b76565b925050819055506001600360008473ffffffffffffffffffffffffffffffffffffffff1673ffffffffffffffffffffffffffffffffffffffff1681526020019081526020016000206000828254611b24919061396a565b92505081905550816002600083815260200190815260200160002060006101000a81548173ffffffffffffffffffffffffffffffffffffffff021916908373ffffffffffffffffffffffffffffffffffffffff160217905550808273ffffffffffffffffffffffffffffffffffffffff168473ffffffffffffffffffffffffffffffffffffffff167fddf252ad1be2c89b69c2b068fc378daa952ba7f163c4a11628f55a4df523b3ef60405160405180910390a4611be38383836120db565b505050565b6000611bf460076120e0565b6000611c0060076120c8565b9050611c0c33826120f6565b611c41611c176117e3565b600860009054906101000a900473ffffffffffffffffffffffffffffffffffffffff166001611d0e565b8091505090565b6000600660009054906101000a900473ffffffffffffffffffffffffffffffffffffffff16905081600660006101000a81548173ffffffffffffffffffffffffffffffffffffffff021916908373ffffffffffffffffffffffffffffffffffffffff1602179055508173ffffffffffffffffffffffffffffffffffffffff168173ffffffffffffffffffffffffffffffffffffffff167f8be0079c531659141344cd1fd0a4f28419497f9722a3daafe3b4186f6b6457e060405160405180910390a35050565b8173ffffffffffffffffffffffffffffffffffffffff168373ffffffffffffffffffffffffffffffffffffffff1603611d7c576040517f08c379a0000000000000000000000000000000000000000000000000000000008152600401611d7390613bf6565b60405180910390fd5b80600560008573ffffffffffffffffffffffffffffffffffffffff1673ffffffffffffffffffffffffffffffffffffffff16815260200190815260200160002060008473ffffffffffffffffffffffffffffffffffffffff1673ffffffffffffffffffffffffffffffffffffffff16815260200190815260200160002060006101000a81548160ff0219169083151502179055508173ffffffffffffffffffffffffffffffffffffffff168373ffffffffffffffffffffffffffffffffffffffff167f17307eab39ab6107e8899845ad3d59bd9653f200f220920489ca2b5937696c3183604051611e6d91906125d0565b60405180910390a3505050565b611e85848484611982565b611e91848484846122cf565b611ed0576040517f08c379a0000000000000000000000000000000000000000000000000000000008152600401611ec790613c88565b60405180910390fd5b50505050565b6060600c8054611ee590612dea565b80601f0160208091040260200160405190810160405280929190818152602001828054611f1190612dea565b8015611f5e5780601f10611f3357610100808354040283529160200191611f5e565b820191906000526020600020905b815481529060010190602001808311611f4157829003601f168201915b5050505050905090565b606060008203611faf576040518060400160405280600181526020017f300000000000000000000000000000000000000000000000000000000000000081525090506120c3565b600082905060005b60008214611fe1578080611fca90613671565b915050600a82611fda9190613cd7565b9150611fb7565b60008167ffffffffffffffff811115611ffd57611ffc6128e4565b5b6040519080825280601f01601f19166020018201604052801561202f5781602001600182028036833780820191505090505b5090505b600085146120bc576001826120489190613b76565b9150600a856120579190613d08565b6030612063919061396a565b60f81b81838151811061207957612078613642565b5b60200101907effffffffffffffffffffffffffffffffffffffffffffffffffffffffffffff1916908160001a905350600a856120b59190613cd7565b9450612033565b8093505050505b919050565b600081600001549050919050565b505050565b505050565b6001816000016000828254019250508190555050565b600073ffffffffffffffffffffffffffffffffffffffff168273ffffffffffffffffffffffffffffffffffffffff1603612165576040517f08c379a000000000000000000000000000000000000000000000000000000000815260040161215c90613d85565b60405180910390fd5b61216e81611777565b156121ae576040517f08c379a00000000000000000000000000000000000000000000000000000000081526004016121a590613df1565b60405180910390fd5b6121ba600083836120d6565b6001600360008473ffffffffffffffffffffffffffffffffffffffff1673ffffffffffffffffffffffffffffffffffffffff168152602001908152602001600020600082825461220a919061396a565b92505081905550816002600083815260200190815260200160002060006101000a81548173ffffffffffffffffffffffffffffffffffffffff021916908373ffffffffffffffffffffffffffffffffffffffff160217905550808273ffffffffffffffffffffffffffffffffffffffff16600073ffffffffffffffffffffffffffffffffffffffff167fddf252ad1be2c89b69c2b068fc378daa952ba7f163c4a11628f55a4df523b3ef60405160405180910390a46122cb600083836120db565b5050565b60006122f08473ffffffffffffffffffffffffffffffffffffffff16612456565b15612449578373ffffffffffffffffffffffffffffffffffffffff1663150b7a026123196117e3565b8786866040518563ffffffff1660e01b815260040161233b9493929190613e66565b6020604051808303816000875af192505050801561237757506040513d601f19601f820116820180604052508101906123749190613ec7565b60015b6123f9573d80600081146123a7576040519150601f19603f3d011682016040523d82523d6000602084013e6123ac565b606091505b5060008151036123f1576040517f08c379a00000000000000000000000000000000000000000000000000000000081526004016123e890613c88565b60405180910390fd5b805181602001fd5b63150b7a0260e01b7bffffffffffffffffffffffffffffffffffffffffffffffffffffffff1916817bffffffffffffffffffffffffffffffffffffffffffffffffffffffff19161491505061244e565b600190505b949350505050565b6000808273ffffffffffffffffffffffffffffffffffffffff163b119050919050565b82805461248590612dea565b90600052602060002090601f0160209004810192826124a757600085556124ee565b82601f106124c057805160ff19168380011785556124ee565b828001600101855582156124ee579182015b828111156124ed5782518255916020019190600101906124d2565b5b5090506124fb91906124ff565b5090565b5b80821115612518576000816000905550600101612500565b5090565b6000604051905090565b600080fd5b600080fd5b60007fffffffff0000000000000000000000000000000000000000000000000000000082169050919050565b61256581612530565b811461257057600080fd5b50565b6000813590506125828161255c565b92915050565b60006020828403121561259e5761259d612526565b5b60006125ac84828501612573565b91505092915050565b60008115159050919050565b6125ca816125b5565b82525050565b60006020820190506125e560008301846125c1565b92915050565b600081519050919050565b600082825260208201905092915050565b60005b8381101561262557808201518184015260208101905061260a565b83811115612634576000848401525b50505050565b6000601f19601f8301169050919050565b6000612656826125eb565b61266081856125f6565b9350612670818560208601612607565b6126798161263a565b840191505092915050565b6000602082019050818103600083015261269e818461264b565b905092915050565b6000819050919050565b6126b9816126a6565b81146126c457600080fd5b50565b6000813590506126d6816126b0565b92915050565b6000602082840312156126f2576126f1612526565b5b6000612700848285016126c7565b91505092915050565b600073ffffffffffffffffffffffffffffffffffffffff82169050919050565b600061273482612709565b9050919050565b61274481612729565b82525050565b600060208201905061275f600083018461273b565b92915050565b61276e81612729565b811461277957600080fd5b50565b60008135905061278b81612765565b92915050565b600080604083850312156127a8576127a7612526565b5b60006127b68582860161277c565b92505060206127c7858286016126c7565b9150509250929050565b6000819050919050565b60006127f66127f16127ec84612709565b6127d1565b612709565b9050919050565b6000612808826127db565b9050919050565b600061281a826127fd565b9050919050565b61282a8161280f565b82525050565b60006020820190506128456000830184612821565b92915050565b6000612856826127fd565b9050919050565b6128668161284b565b82525050565b6000602082019050612881600083018461285d565b92915050565b6000806000606084860312156128a05761289f612526565b5b60006128ae8682870161277c565b93505060206128bf8682870161277c565b92505060406128d0868287016126c7565b9150509250925092565b600080fd5b600080fd5b7f4e487b7100000000000000000000000000000000000000000000000000000000600052604160045260246000fd5b61291c8261263a565b810181811067ffffffffffffffff8211171561293b5761293a6128e4565b5b80604052505050565b600061294e61251c565b905061295a8282612913565b919050565b600067ffffffffffffffff82111561297a576129796128e4565b5b6129838261263a565b9050602081019050919050565b82818337600083830152505050565b60006129b26129ad8461295f565b612944565b9050828152602081018484840111156129ce576129cd6128df565b5b6129d9848285612990565b509392505050565b600082601f8301126129f6576129f56128da565b5b8135612a0684826020860161299f565b91505092915050565b60008060408385031215612a2657612a25612526565b5b600083013567ffffffffffffffff811115612a4457612a4361252b565b5b612a50858286016129e1565b9250506020612a61858286016126c7565b9150509250929050565b600060208284031215612a8157612a80612526565b5b600082013567ffffffffffffffff811115612a9f57612a9e61252b565b5b612aab848285016129e1565b91505092915050565b600081519050919050565b600082825260208201905092915050565b6000819050602082019050919050565b612ae9816126a6565b82525050565b6000612afb8383612ae0565b60208301905092915050565b6000602082019050919050565b6000612b1f82612ab4565b612b298185612abf565b9350612b3483612ad0565b8060005b83811015612b65578151612b4c8882612aef565b9750612b5783612b07565b925050600181019050612b38565b5085935050505092915050565b60006020820190508181036000830152612b8c8184612b14565b905092915050565b600060208284031215612baa57612ba9612526565b5b6000612bb88482850161277c565b91505092915050565b612bca816126a6565b82525050565b6000602082019050612be56000830184612bc1565b92915050565b612bf4816125b5565b8114612bff57600080fd5b50565b600081359050612c1181612beb565b92915050565b60008060408385031215612c2e57612c2d612526565b5b6000612c3c8582860161277c565b9250506020612c4d85828601612c02565b9150509250929050565b600067ffffffffffffffff821115612c7257612c716128e4565b5b612c7b8261263a565b9050602081019050919050565b6000612c9b612c9684612c57565b612944565b905082815260208101848484011115612cb757612cb66128df565b5b612cc2848285612990565b509392505050565b600082601f830112612cdf57612cde6128da565b5b8135612cef848260208601612c88565b91505092915050565b60008060008060808587031215612d1257612d11612526565b5b6000612d208782880161277c565b9450506020612d318782880161277c565b9350506040612d42878288016126c7565b925050606085013567ffffffffffffffff811115612d6357612d6261252b565b5b612d6f87828801612cca565b91505092959194509250565b60008060408385031215612d9257612d91612526565b5b6000612da08582860161277c565b9250506020612db18582860161277c565b9150509250929050565b7f4e487b7100000000000000000000000000000000000000000000000000000000600052602260045260246000fd5b60006002820490506001821680612e0257607f821691505b602082108103612e1557612e14612dbb565b5b50919050565b7f4552433732313a20617070726f76656420717565727920666f72206e6f6e657860008201527f697374656e7420746f6b656e0000000000000000000000000000000000000000602082015250565b6000612e77602c836125f6565b9150612e8282612e1b565b604082019050919050565b60006020820190508181036000830152612ea681612e6a565b9050919050565b7f4552433732313a20617070726f76616c20746f2063757272656e74206f776e6560008201527f7200000000000000000000000000000000000000000000000000000000000000602082015250565b6000612f096021836125f6565b9150612f1482612ead565b604082019050919050565b60006020820190508181036000830152612f3881612efc565b9050919050565b7f4552433732313a20617070726f76652063616c6c6572206973206e6f74206f7760008201527f6e6572206e6f7220617070726f76656420666f7220616c6c0000000000000000602082015250565b6000612f9b6038836125f6565b9150612fa682612f3f565b604082019050919050565b60006020820190508181036000830152612fca81612f8e565b9050919050565b7f4552433732313a207472616e736665722063616c6c6572206973206e6f74206f60008201527f776e6572206e6f7220617070726f766564000000000000000000000000000000602082015250565b600061302d6031836125f6565b915061303882612fd1565b604082019050919050565b6000602082019050818103600083015261305c81613020565b9050919050565b7f4f776e61626c653a2063616c6c6572206973206e6f7420746865206f776e6572600082015250565b60006130996020836125f6565b91506130a482613063565b602082019050919050565b600060208201905081810360008301526130c88161308c565b9050919050565b7f426f7849642073686f756c64206e6f7420656d70747900000000000000000000600082015250565b60006131056016836125f6565b9150613110826130cf565b602082019050919050565b60006020820190508181036000830152613134816130f8565b9050919050565b600081905092915050565b6000613151826125eb565b61315b818561313b565b935061316b818560208601612607565b80840191505092915050565b60006131838284613146565b915081905092915050565b60006131a161319c8461295f565b612944565b9050828152602081018484840111156131bd576131bc6128df565b5b6131c8848285612607565b509392505050565b600082601f8301126131e5576131e46128da565b5b81516131f584826020860161318e565b91505092915050565b60006020828403121561321457613213612526565b5b600082015167ffffffffffffffff8111156132325761323161252b565b5b61323e848285016131d0565b91505092915050565b7f57616c6c65742041646472657373206d757374206265206c696e6b656420776960008201527f74682075736572206163636f756e74206265666f726520627579426f78657300602082015250565b60006132a3603f836125f6565b91506132ae82613247565b604082019050919050565b600060208201905081810360008301526132d281613296565b9050919050565b7f426f782073686f756c642062652073656c6c696e670000000000000000000000600082015250565b600061330f6015836125f6565b915061331a826132d9565b602082019050919050565b6000602082019050818103600083015261333e81613302565b9050919050565b7f426f78416d6f756e742073686f756c64206265203e2030000000000000000000600082015250565b600061337b6017836125f6565b915061338682613345565b602082019050919050565b600060208201905081810360008301526133aa8161336e565b9050919050565b7f4e487b7100000000000000000000000000000000000000000000000000000000600052601160045260246000fd5b60006133eb826126a6565b91506133f6836126a6565b9250817fffffffffffffffffffffffffffffffffffffffffffffffffffffffffffffffff048311821515161561342f5761342e6133b1565b5b828202905092915050565b600081519050613449816126b0565b92915050565b60006020828403121561346557613464612526565b5b60006134738482850161343a565b91505092915050565b7f596f7520646f206e6f74206861766520656e6f75676820444b4320746f20627560008201527f7920426f78657300000000000000000000000000000000000000000000000000602082015250565b60006134d86027836125f6565b91506134e38261347c565b604082019050919050565b60006020820190508181036000830152613507816134cb565b9050919050565b6000604082019050613523600083018561273b565b613530602083018461273b565b9392505050565b7f596f7520646f206e6f7420617070726f766520656e6f75676820444b4320746f60008201527f2062757920426f78657300000000000000000000000000000000000000000000602082015250565b6000613593602a836125f6565b915061359e82613537565b604082019050919050565b600060208201905081810360008301526135c281613586565b9050919050565b60006060820190506135de600083018661273b565b6135eb602083018561273b565b6135f86040830184612bc1565b949350505050565b60008151905061360f81612beb565b92915050565b60006020828403121561362b5761362a612526565b5b600061363984828501613600565b91505092915050565b7f4e487b7100000000000000000000000000000000000000000000000000000000600052603260045260246000fd5b600061367c826126a6565b91507fffffffffffffffffffffffffffffffffffffffffffffffffffffffffffffffff82036136ae576136ad6133b1565b5b600182019050919050565b600060608201905081810360008301526136d38186612b14565b90506136e2602083018561273b565b81810360408301526136f4818461264b565b9050949350505050565b7f4552433732313a206f776e657220717565727920666f72206e6f6e657869737460008201527f656e7420746f6b656e0000000000000000000000000000000000000000000000602082015250565b600061375a6029836125f6565b9150613765826136fe565b604082019050919050565b600060208201905081810360008301526137898161374d565b9050919050565b7f4552433732313a2062616c616e636520717565727920666f7220746865207a6560008201527f726f206164647265737300000000000000000000000000000000000000000000602082015250565b60006137ec602a836125f6565b91506137f782613790565b604082019050919050565b6000602082019050818103600083015261381b816137df565b9050919050565b7f4552433732314d657461646174613a2055524920717565727920666f72206e6f60008201527f6e6578697374656e7420746f6b656e0000000000000000000000000000000000602082015250565b600061387e602f836125f6565b915061388982613822565b604082019050919050565b600060208201905081810360008301526138ad81613871565b9050919050565b60006138c08285613146565b91506138cc8284613146565b91508190509392505050565b7f4f776e61626c653a206e6577206f776e657220697320746865207a65726f206160008201527f6464726573730000000000000000000000000000000000000000000000000000602082015250565b60006139346026836125f6565b915061393f826138d8565b604082019050919050565b6000602082019050818103600083015261396381613927565b9050919050565b6000613975826126a6565b9150613980836126a6565b9250827fffffffffffffffffffffffffffffffffffffffffffffffffffffffffffffffff038211156139b5576139b46133b1565b5b828201905092915050565b7f4552433732313a206f70657261746f7220717565727920666f72206e6f6e657860008201527f697374656e7420746f6b656e0000000000000000000000000000000000000000602082015250565b6000613a1c602c836125f6565b9150613a27826139c0565b604082019050919050565b60006020820190508181036000830152613a4b81613a0f565b9050919050565b7f4552433732313a207472616e736665722066726f6d20696e636f72726563742060008201527f6f776e6572000000000000000000000000000000000000000000000000000000602082015250565b6000613aae6025836125f6565b9150613ab982613a52565b604082019050919050565b60006020820190508181036000830152613add81613aa1565b9050919050565b7f4552433732313a207472616e7366657220746f20746865207a65726f2061646460008201527f7265737300000000000000000000000000000000000000000000000000000000602082015250565b6000613b406024836125f6565b9150613b4b82613ae4565b604082019050919050565b60006020820190508181036000830152613b6f81613b33565b9050919050565b6000613b81826126a6565b9150613b8c836126a6565b925082821015613b9f57613b9e6133b1565b5b828203905092915050565b7f4552433732313a20617070726f766520746f2063616c6c657200000000000000600082015250565b6000613be06019836125f6565b9150613beb82613baa565b602082019050919050565b60006020820190508181036000830152613c0f81613bd3565b9050919050565b7f4552433732313a207472616e7366657220746f206e6f6e20455243373231526560008201527f63656976657220696d706c656d656e7465720000000000000000000000000000602082015250565b6000613c726032836125f6565b9150613c7d82613c16565b604082019050919050565b60006020820190508181036000830152613ca181613c65565b9050919050565b7f4e487b7100000000000000000000000000000000000000000000000000000000600052601260045260246000fd5b6000613ce2826126a6565b9150613ced836126a6565b925082613cfd57613cfc613ca8565b5b828204905092915050565b6000613d13826126a6565b9150613d1e836126a6565b925082613d2e57613d2d613ca8565b5b828206905092915050565b7f4552433732313a206d696e7420746f20746865207a65726f2061646472657373600082015250565b6000613d6f6020836125f6565b9150613d7a82613d39565b602082019050919050565b60006020820190508181036000830152613d9e81613d62565b9050919050565b7f4552433732313a20746f6b656e20616c7265616479206d696e74656400000000600082015250565b6000613ddb601c836125f6565b9150613de682613da5565b602082019050919050565b60006020820190508181036000830152613e0a81613dce565b9050919050565b600081519050919050565b600082825260208201905092915050565b6000613e3882613e11565b613e428185613e1c565b9350613e52818560208601612607565b613e5b8161263a565b840191505092915050565b6000608082019050613e7b600083018761273b565b613e88602083018661273b565b613e956040830185612bc1565b8181036060830152613ea78184613e2d565b905095945050505050565b600081519050613ec18161255c565b92915050565b600060208284031215613edd57613edc612526565b5b6000613eeb84828501613eb2565b9150509291505056fea26469706673582212205419ef43da1d5f47afc1f64928a816700b63057ba030d02df40dcadec134d0ae64736f6c634300080d0033",
  "immutableReferences": {},
  "source": "// SPDX-License-Identifier: MIT\r\n\r\npragma solidity ^0.8.13;\r\n\r\nimport \"./ILinkWallet.sol\";\r\nimport \"@openzeppelin/contracts/token/ERC721/ERC721.sol\";\r\nimport \"@openzeppelin/contracts/utils/Counters.sol\";\r\nimport \"@openzeppelin/contracts/token/ERC20/IERC20.sol\";\r\nimport \"@openzeppelin/contracts/access/Ownable.sol\";\r\n\r\ncontract TankNFT is ERC721, Ownable {\r\n    using Counters for Counters.Counter;\r\n    Counters.Counter private _tokenIds;\r\n    address public marketAddress;\r\n    IERC20 public deathKingdomCoin;\r\n    ILinkWallet public linkWallet;\r\n    mapping(string => uint256) boxPrices;\r\n\r\n    string public baseURI;\r\n\r\n    constructor(\r\n        address _marketplaceContract,\r\n        address _deathKingdomCoinContract,\r\n        address _linkWalletAddress\r\n    ) ERC721(\"TankNFTToken\", \"DKT\") {\r\n        marketAddress = _marketplaceContract;\r\n        deathKingdomCoin = IERC20(_deathKingdomCoinContract);\r\n        linkWallet = ILinkWallet(_linkWalletAddress);\r\n    }\r\n\r\n    function _baseURI() internal view override returns (string memory) {\r\n        return baseURI;\r\n    }\r\n\r\n    function setBaseURI(string memory _baseURI) public onlyOwner {\r\n        baseURI = _baseURI;\r\n    }\r\n\r\n    function setBoxPrice(string memory _boxId, uint256 _price)\r\n        public\r\n        onlyOwner\r\n    {\r\n        require(bytes(_boxId).length > 0, \"BoxId should not empty\");\r\n        boxPrices[_boxId] = _price;\r\n    }\r\n\r\n    function getBoxPrice(string memory _boxId) public view returns (uint256) {\r\n        require(bytes(_boxId).length > 0, \"BoxId should not empty\");\r\n        return boxPrices[_boxId];\r\n    }\r\n\r\n    event BoxSold(uint256[] listTokenId, address tokenOwner, string boxId);\r\n\r\n    function buyBoxes(string memory _boxId, uint256 _amount)\r\n        public\r\n        returns (uint256[] memory)\r\n    {\r\n        require(\r\n            bytes(linkWallet.getUserIdByWalletAddress(msg.sender)).length > 0,\r\n            \"Wallet Address must be linked with user account before buyBoxes\"\r\n        );\r\n        require(bytes(_boxId).length > 0, \"BoxId should not empty\");\r\n        require(boxPrices[_boxId] > 0, \"Box should be selling\");\r\n        require(_amount > 0, \"BoxAmount should be > 0\");\r\n        uint256 totalPrice = _amount * boxPrices[_boxId];\r\n\r\n        uint256 senderBalance = deathKingdomCoin.balanceOf(msg.sender);\r\n        require(\r\n            senderBalance >= totalPrice,\r\n            \"You do not have enough DKC to buy Boxes\"\r\n        );\r\n\r\n        uint256 allowance = deathKingdomCoin.allowance(\r\n            msg.sender,\r\n            address(this)\r\n        );\r\n        require(\r\n            allowance >= totalPrice,\r\n            \"You do not approve enough DKC to buy Boxes\"\r\n        );\r\n\r\n        deathKingdomCoin.transferFrom(msg.sender, owner(), totalPrice);\r\n\r\n        uint256[] memory nfts = new uint256[](_amount);\r\n        for (uint256 i = 0; i < _amount; i++) {\r\n            nfts[i] = createToken();\r\n        }\r\n        emit BoxSold(nfts, msg.sender, _boxId);\r\n        return nfts;\r\n    }\r\n\r\n    function createToken() private returns (uint256) {\r\n        _tokenIds.increment();\r\n        uint256 newTokenId = _tokenIds.current();\r\n\r\n        _mint(msg.sender, newTokenId);\r\n        _setApprovalForAll(_msgSender(), marketAddress, true);\r\n        return newTokenId;\r\n    }\r\n\r\n    function getMyNfts(address _ownerAddress)\r\n        public\r\n        view\r\n        returns (uint256[] memory)\r\n    {\r\n        uint256 nftCount = _tokenIds.current();\r\n        uint256[] memory nfts = new uint256[](balanceOf(_ownerAddress));\r\n        uint256 nftIndex = 0;\r\n        for (uint256 i = 0; i < nftCount; i++) {\r\n            if (ownerOf(i + 1) == _ownerAddress) {\r\n                nfts[nftIndex] = i + 1;\r\n                nftIndex++;\r\n            }\r\n        }\r\n        return nfts;\r\n    }\r\n}\r\n",
  "sourcePath": "D:\\code\\TheDeadKingdom\\Contract\\contracts\\ethereum\\TankNFT.sol",
  "compiler": {
    "name": "solc",
    "version": "0.8.13+commit.abaa5c0e.Emscripten.clang"
  },
  "schemaVersion": "3.4.7",
  "updatedAt": "2022-08-28T05:31:29.538Z",
  "networkType": "ethereum",
  "devdoc": {
    "kind": "dev",
    "methods": {
      "approve(address,uint256)": {
        "details": "See {IERC721-approve}."
      },
      "balanceOf(address)": {
        "details": "See {IERC721-balanceOf}."
      },
      "getApproved(uint256)": {
        "details": "See {IERC721-getApproved}."
      },
      "isApprovedForAll(address,address)": {
        "details": "See {IERC721-isApprovedForAll}."
      },
      "name()": {
        "details": "See {IERC721Metadata-name}."
      },
      "owner()": {
        "details": "Returns the address of the current owner."
      },
      "ownerOf(uint256)": {
        "details": "See {IERC721-ownerOf}."
      },
      "renounceOwnership()": {
        "details": "Leaves the contract without owner. It will not be possible to call `onlyOwner` functions anymore. Can only be called by the current owner. NOTE: Renouncing ownership will leave the contract without an owner, thereby removing any functionality that is only available to the owner."
      },
      "safeTransferFrom(address,address,uint256)": {
        "details": "See {IERC721-safeTransferFrom}."
      },
      "safeTransferFrom(address,address,uint256,bytes)": {
        "details": "See {IERC721-safeTransferFrom}."
      },
      "setApprovalForAll(address,bool)": {
        "details": "See {IERC721-setApprovalForAll}."
      },
      "supportsInterface(bytes4)": {
        "details": "See {IERC165-supportsInterface}."
      },
      "symbol()": {
        "details": "See {IERC721Metadata-symbol}."
      },
      "tokenURI(uint256)": {
        "details": "See {IERC721Metadata-tokenURI}."
      },
      "transferFrom(address,address,uint256)": {
        "details": "See {IERC721-transferFrom}."
      },
      "transferOwnership(address)": {
        "details": "Transfers ownership of the contract to a new account (`newOwner`). Can only be called by the current owner."
      }
    },
    "version": 1
  },
  "userdoc": {
    "kind": "user",
    "methods": {},
    "version": 1
  }
}